19670101-173145CMPkkhSvCsfgbDUvsiZWtPQwjkYPwKrfTUFMGMCWCBXBcOcTkaLSudO        0000000000ACTVDRA   1886072219918 Rogers North                                                                                                                                              35233       Long Beach               NC                  United States of AmericaEllebracht                                     CUpESkLIQ LBcTnhDEOCLVhfDjOopGKRBxRYGboIrPFcDxMSGkskSwAJdAPWSAPTf T                                                                                  
19670103-113557CMPTGfFOOldnTHLjuAaQqJBgbibktVyiLStkrLCynHAZNCp                0000000001ACTVCGBB  1854020818065 Four Points Drive                                                         Apt. 398                                                                        T5C 1T1     Atlanta                  Nova Scotia         United States of AmericaSchrupp                                       CDQRuWjWYOxAXaxBmtiD ZsEcVdDdKZ gRBLzFSDejX UcSmRApkRBipTTGkWs hZqXkpvMsXFziJURrJLjfXBNHbnq XJUUkgfXRHUBMTsHGYahLMAHmNOUTAKAh fHaTI                   
19670103-192153CMPjRhDJJDxLPxUEMMpdhzdZNqRVTuzMCrlMcwMsdHNvIEBwDfErPG         0000000002ACTVSCAA+ 192103285397 Gessner Drive                                                                                                                                              37933       Stamford                 CO                  Canada                  Setera                                        NWRSuluTBHdsBdoLBKORDOmaM MNCKssPPBLngSJOOhjvUhajRiEREVEnOVZIAVHgkYzJELLsIQrJlCXSFJGZBhBsFFNQUbiFRsIoHcahXzFnOBRPFJwSkAZCwHYONWl                      
19670104-211149CMPRICOfhFDpPHwKRHsmPHYTpTzGDeJMQruPEEdPICrMiweHGwOFQYNoQXZWIjN0000000003ACTVTIA   193003282387 Halle Lower                                                                                                                                                E7O 1I5     Elizabeth                Alberta             United States of AmericaDorsett                                       EknTgdSRAbcjFnBQGkGhZwYKmsR DUnJcPlOMlLRcusE                                                                                                          
19670106-054140CMPgIOONPxnQUwBdFNEMLBUXdUbFPDWDVOVnWIIMRpOMbaMGipmCAICpjncsHs 0000000004ACTVEIFZ  1889041820644 Birchwood Way                                                                                                                                             V6D 1P4     Fort Wayne               VT                  United States of AmericaThursby                                       EXoxOMwRbSK ajeCNjiuEAxqzPKYpuNgBxxNMJrPYCXicCNNVXKbROeFROToBqgVhwndmvWzBJRbaCUzNDHKcljPkfRjItSquPfbNUqPQBDotrKSMsFnOLMmXRdTNwZsE                     
19670108-001313CMPKRtMROFTkhVPydRKxEDtVV                                      0000000005ACTVSPBBB-1864112911323 Clifton East                                                                                                                                              90229       Garden Grove             NC                  United States of AmericaBasey                                         PSEFWVRYboJDCCbkRDGNzIyyBMeYi l PU qbrWLFDMBJAeRxWX UWMRKCFDNeHyssAbznTMCAtMRmhLSocEznZAgUDJzcLHLaH                                                   
19670108-211340CMPdiqlqOsDpYaNQhSPBbXhMXocCDXEfNMfLDMDHOdpovsklTN             0000000006ACTVCTAA- 189001303833 Princeton Crescent                                                                                                                                         40214       Phoenix                  RI                  Canada                  Leopard                                        mzRDwfNsLqwBLQedZIFTCCxaOnKHqwyD cqovHXAqgIsnRUBakGDMKeOSGIZMrXApUqoqxDpgMcJwgPGDQURpTAzOSIkfOKRJGsPeJumOTYjDVLByShyjrMYFxSzPMlAxNHEHGzqTJnHMFmpFJK  
19670110-125422CMPJaBRAUCPDCLITNXXrADVCSIopfxogeRFkYFvBVlr                    0000000007ACTVCTZyG 1903041119309 McFarlin North                                                                                                                                            60612       Little Rock              SC                  United States of AmericaAird                                          EoxwpIaSiVNkSIbAPRUTUVAnyUQpVyHrLpJUULKOGxxWlAyDfPudALpC ncyZpcUBGLCEizruOCLzBEPhoVUADcFJOUdmJXBcgjCCpKQQFKjquitvKLtxRwQtQwISaS                       
19670112-101252CMPAYrIhMoBIgUBkRdxKABPjIIShjxFyaWTAsK                         0000000008ACTVCFB-  188501179592 Carlingford Court                                                                                                                                          91910       Jersey City              NJ                  United States of AmericaSchindele                                     CubhsavcGhxQbtcjOHVewfWPlDftSehpfEaHdXptufiuxQkpsXSswfCIUVhsrUlpFUeJJmHXvwJSJmWDfQHgWXqoYoIZRhlmU ZARuVfVQZATCT rMttK                                 
19670112-132815CMPzZCyFkqieiPsUGvBJwvhXNW                                     0000000009ACTVMDAA- 196510261427 Addax Lane                                                                                                                                                 V6W 1U2     Berkeley                 Nova Scotia         United States of AmericaKalafut                                       kHAfHUvzVZKjUOvZcFghDkcCDsFjH                                                                                                                         
19670114-144557CMPrjkmNkyRrYnpSUDcOqIviweufHAQzFKBSXsYPAcKkbMbBVsEUWMNMRKJZK  0000000010ACTVTIBBB+        16547 Danvers Rue                                                                                                                                               94489       Palmdale                 AL                  United States of AmericaNelson                                        DSGKjAatPllQoVYFdO sxtAuqGWHxWCZjjFtsRjzLaZOAV                                                                                                        
19670115-144105CMPgDqcCBxupXLOeBnjyoDuJKKpXXazMTBejzLaoxVkzpfVHbeQYNnEL       0000000011ACTVWUAA+ 1957111122376 Burton Upper                                                                                                                                              10211       Lowell                   New Brunswick       Canada                  Mckerchie                                     jruKsEtvzWUoVEbZQDmUboPYXQIFGSVdnRCBrcRACGbiGZRINHI IBLfMvShSpFJouITJcuQGbSmKLdaxfqPVWaIQViRHSMbFJoJGVPpVqZTJdqjZOIpQvcuCo                            
19670117-011257CMPEOMpasJigJVvYQGKVcDPddEniaOUaTojpCAmYQrUeZJEGo              0000000012ACTVOSBBB 1897090911167 Wolfe Way                                                                                                                                                 B1C 1X4     Memphis                  CO                  United States of AmericaProud                                         LCJEKmvsuZzCLbvDuxiTEIDb                                                                                                                              
19670117-175936CMPvnbESGDLPDBDVwsKNSXPqRYLGXjuxVJrQDsEcEVAYIyXWMFThaGbMIZNd   0000000013ACTVSSBB  1965120414719 North Rue                                                                                                                                                 10133       Montgomery               IA                  United States of AmericaModha                                         OhFmCmqqcTnRKODFDpCttrIvGNSBdCJKxkmDNLeTBrCIHsQfFPeTvTKWPCJPFpJLGlSvHNJRTYkAVmTwBvGcCwGQHrRMgQotGZIYGmfRADEdIQKc                                      
19670119-234237CMPUxwoFfdmLfKmuJCZStrMNOScJQzWthcXUUiyvsPHTsRlAJPOiKyvchxt    0000000014ACTVACB+  1937040424277 Pico Upper                                                                                                                                                35823       Anchorage                TX                  United States of AmericaMantini                                       iugHxskDEQORGLXHTHBgyWEWIrpgIQXkYiSNiouZINKVezIoRIfStLvfcrA ekjifGHetXpnnLSEmMuvNxtkxtLVADBTCDfJlBBuRRyrXtnzcJYpVeqf DFQETDDEPg                       
19670121-152000CMPYGODXTYUYQHKSUzVdmTrHaaZEgiuZLXAwzvjFZMnWXdUSECjfiOJYU      0000000015ACTVPAB   1871032215176 Purdue East                                                                                                                                               36638       Jersey City              WA                  United States of AmericaLaunius                                       aqaCEbWGFxMDRkXNACaxqZjSu cERxcKLZEHBCVNyJIqHHAlGMGVQAKaiUHnCSMRFPwlGHRuZkZJscQlQPzIDWzACODYjsUtIIrSyXQpJjLRZyhbTPwyjmJXfCnQqEpwzXQ                   
19670121-211420CMPBlzKUNpcdbxQGHwUAaQlIXGgyZmHnyRREOKBwpXvXwwWEOWiNJVMXWALS   0000000016ACTVCKCCC 1868010615927 Flagler Way                                                                                                                                               73140       Tucson                   WA                  United States of AmericaGalizia                                       FOwdnLOyVOIyIMXSCmUmdEPFWnqJvQQnekukvmPxkRTh                                                                                                          
19670123-020111CMPJOlePeOMqNiWFtIikbYCtGoucRYkTNggTpiDSTEocDbaMdhzl           0000000017ACTVREDIq 193208068357 Buckeye West                                                                                                                                               75237       New Haven                IN                  United States of AmericaMantini                                        wuHpeHmnuetuEgRwMGICaiCmDMCSAkBhfHSehUwwJEhSgOdCZRGQFUcEBlQktlJISrPScVkJFGPrUPjIASwbISIG SMCgQwhmEQgBXBDsjisQPSVgTLRXPJluhDTWdkKEDrOqymIpLEeDzrsPn   
19670124-231151CMPiAJNmDakgxlQcGOiloFqkXDmRxJezUSKSBPCvqFfSbAlV               0000000018ACTVCDBBB 1867062016775 Pike East                                                                                                                                                 50309       Hull                     Ontario             Canada                  Beverley                                       FWnrIwwvUgVGwQCooZxqRBqAqhqUpvHuNJwBjwsImTuBCMUdAqMIVpoChkLKEzLVOBMjBxPeEYAjKYQpBOGVTIhOZxtUYX jIpZTMXYTmwbGVIdRuFjKzJwPZV                           
19670125-022325CMPlSBXSwESnnboFFeSvHxFjlfxrwIZABfGMjiWUbhTmnRHnPFOTMlMAQnZJA  0000000019ACTVBSCCC 193005022682 Lumber Park                                                                                                                                                80225       Santa Clara              DC                  Canada                  Thursby                                       BAJD NFwWAUg                                                                                                                                          
19670126-034131CMPXdCwDlGsXFstGqdCIcNOKJfTOQPnoEeELXbNmwOl                    0000000020ACTVHMAA- 191711032579 Creekbend Way                                                              Apt. 177                                                                        90053       Topeka                   DE                  United States of AmericaDengel                                        PbEXTLxQMjUFVigzlINmXkOMkKRDqdQLlcGKPE                                                                                                                
19670127-060908CMPjmClCXBcZwINVyetRxHbWYRbsYBIFkuIGtecXWIN                    0000000021ACTVRSCCC+1860100819932 Clower Street                                                                                                                                             43623       Macon                    IA                  United States of AmericaCascio                                        YCaFAYUiNzTMf brahQDhkmJBBDYZZNVEsNKhhXDlIEZbQ UrvozWyERX CAFjLNLgdPiyDcXEVxCIRF                                                                      
19670128-093030CMPnFkXCFIQQcAPOHRuYtieKkGSZpAdCmvxWPuheWUSLiFkN               0000000022ACTVBDB-  195706304371 Ashford Hollow Lane                                                                                                                                        44312       Sandy                    MD                  United States of AmericaDegrace                                       JTQvSVCJVqUQFgkUESYHOwYeRSHHrqPPjZrqwUvnJrKaMcCLXLETVpTaGVsNVxbWanUeeTXvhZBSmhKShJsOPpGXUTFQKgePpPUL GzkCIzDHTLcesmM                                  
19670129-084959CMPzScyndwxOcLUXIwtrdKPFPDeQiYudN                              0000000023ACTVCTD   1859081011976 Halms Upper                                                               Suite 225                                                                       92177       Fort Collins             MS                  United States of AmericaKosky                                         mqCvWtLtyfDNHPrgOJLPWDAnj yHTINEBwULFDVBmm                                                                                                            
19670131-060725CMPrqMbvwSCBGYCGMEPKQeELcTKYUzuwRMWTqYPIirIgRbOCStxEXLeiAEZJCb 0000000024ACTVPGC   194712086963 Emmonds Drive                                                                                                                                              72203       Cedar Rapids             VA                  Canada                  Stuckey                                       BEDwOgbUNsOzCnpFsfGMcUBkXpJVqtbHLWnYDZdBwILkcSzRTK tONaTJKQ                                                                                           
19670201-120710CMPyRflLhHvroMJBNHcMIDiQuHspAHUTFVE                            0000000025ACTVCOBBB 190807318457 Fennel Rue                                                                                                                                                 95202       Boston                   AR                  Canada                  Roston                                        RSFPXlKBkCFvSOOaRBIQOEEPT mIRuTOQCSBshaPJEFfCnnSyodGFBGFeSkgrugFDMycC AwouYYfgOPABQQEURRoQSlExPEkKjTuTsPE oQFJVyzYFX                                  
19670203-082850CMPyzVtIWYoRQKKPNbDwXqdBMdFXWIZfiTteG                          0000000026ACTVCTA   19470126292 Sakowitz Road                                                                                                                                               94434       McAllen                  NV                  United States of AmericaDibacco                                       OGLzZfBtCPCMWIhYcrKDHfrXARneOJkNSeRyOfFsBUeByaNS SovvQwYOsaAtoVYBOYhCcpEeivSCWWnXYHwPOwLBJ SIIIGIMeVeTzkSPxRy                                         
19670205-045313CMPVNUMGRlTCSQKEfjLfhaUANwnlPAHDkoFxyHfydObCUUeDgBa            0000000027ACTVWMFrD 188608142336 Shelter Rue                                                                                                                                                37405       Austin                   British Columbia    United States of AmericaDiel                                          RpMKizqHECrKZatHKIARjWHKvOBGfCQStJIJWdkFovmpjAmEKEFFSKlWmvmcTZzzifrbZwrSxR ZhzEy eRFDgI REPTvIEEpNkkfnUQGDxJJE OopbOKnEONkdlzVWQWNLl                  
19670206-040729CMPIiHkvFAHjNrDbHaXULOVQWMsfQI                                 0000000028ACTVOOA+  1900062921605 Gaston Boulevard                                                                                                                                          T5A 1J2     Chicago                  WY                  Canada                  Keleman                                       DvTIVKldUTWFOxmakkTaaMlMTGySiRHkTddOHUTQRyUYiKIOEL mnPZITGtwKDJwSimxjfdfPbeMEvfxIJGUBurEeAbSiZq                                                       
19670206-071542CMPLRYKYZXBcxmTSSowQAFUfTJRSoIvPgvimQgPedHDROTgzAImiQMWqxVFPKu 0000000029ACTVMTD   1949013022649 Weyland Rue                                                               Apt. 821                                                                        06127       Miami                    NJ                  United States of AmericaHynes                                         AsaZbCvkkWJBSnTlBFkywlLEWXPzIKNOKOTIIkZmpcIBN IJBVcPmEzxpbgdSABhDIfHyoLdncOkNQBpINXKRRRCRbn yPJENfTNzriDDVMmSLU                                       
19670206-132313CMPGQgODZYcTEajaEMYDrWGoMdiJOENBaMGcnwYwuNTRPoOXXVjWD          0000000030ACTVDRCCC-187604305391 Clay West                                                                                                                                                  21219       Buffalo                  Alberta             Canada                  Falvo                                         iSfTwyiKDDK                                                                                                                                           
19670207-182124CMPBCRRYMzpoAimKRITzLWLsoomeKjnZvguJDE                         0000000031ACTVIMBB  191707217879 Park Hill Court                                                                                                                                            46214       Escondido                HI                  United States of AmericaVanhuss                                       rcDDAUbrUsAKUUbeRSTzFoGUKlRtRFfOpVJSDYSWXMPBF YrGgzkKSbqoGIamtAdC wEIVCTJFqESyDeIVmnqetcXRwaQvFTPyLrtoUgFWugcIasZdNFSTcLFOqiwsNKMQYhOwKafORHgSfnp     
19670209-175432CMPWCJJAitQbHnCKfmKEVEELEBjYtHsVGTBpOMMCLXEadMPRGRTA           0000000032ACTVCMBBB+190303082061 Congress Park                                                                                                                                              T6A 1D4     Vallejo                  WY                  United States of AmericaClemence                                      gLGjJgEPgDmYKXcKORXoGvCTarEskGPFALWprHYzqirEESSMuhewvIAUWfbIQaNOBNtozHRaACQpiKHNwDWFIJuDfHZtqrERSNipMnVqYrwWsCRpJFLhpCKOdAotUQU                       
19670210-073227CMPqNBRLBcNHRMNCOGgoLutSmLjluU                                 0000000033ACTVHICCC+1889090716119 Penmar North                                                                                                                                              95166       San Bernardino           DC                  United States of AmericaWhisenhunt                                    bIofJd IqcSvNYbrRZFMAaZZzHwOOlVyRRXDlCDDFrPxsdAmYpRqLJINYedlVUCMjanAtzqAW                                                                             
19670212-033541CMPyRPdOOYwDRIgGtBTaFzyuaZQ                                    0000000034ACTVPRBB- 1928081522074 Dexter Upper                                                                                                                                              90397       Memphis                  PA                  United States of AmericaBradac                                        LDGrhRgCvZuKEPnwVUEocB ySKGtRizEv puk HplYNgIJiUoJvG pXEvDirqyIrfwxIvGEliI                                                                            
19670212-153003CMPsOinkIiTdaWTBlAuXFDL                                        0000000035ACTVEIC   1871102310526 Linwood Lane                                                                                                                                              37405       McAllen                  MA                  United States of AmericaMagda                                         hUYDrENWnTtzNHUxpTpUDhCRsPxfuAfQGFwNPDYLDAGUMTNozDDkkAsFYiPmHrkgVFFZBMFIn PqPJoXdugkplVSMUzJsPIQFS                                                    
19670213-163139CMPTzOOKJSXlzetRDAZNOaBGRiAoYkrPjDLzvR                         0000000036ACTVSCB-  1936071915712 Trend South                                                                                                                                               33188       Hollywood                VA                  Canada                  Dolores                                       vmZqlleSVZRfCJxFDbEuBVKINfxOAnNEPqesUGCFVeK                                                                                                           
19670215-034419CMPPGDBgEZqRneMoLzzQWIWKPqUm                                   0000000037ACTVSCA+  1930072816764 McAfee Park                                                                                                                                               V6M 1S7     Little Rock              Quebec              United States of AmericaTarzia                                        hPWPwQ LKqAhPtqLLQbsUFAoPXjsrVEc DNKJgSsOSQIlbLpvHAnJnDqxspZMSHcEOnVXzSzINjdzCHeWcIPAMUBUFfFQTlYT smxLeihJPFzuuqvqKWiygxzeOOHGPBFKCRvadNhcMvD         
19670215-103543CMPPozAgYtmghzwqacMhOFSFF                                      0000000038ACTVSBBB- 1884121412279 Trafalgar Crescent                                                                                                                                        V6G 1T4     Fort Lauderdale          Manitoba            Canada                  Eckland                                       JmyvpFSSRQHyVCJUUJZbmBJJgcuGLUCs rpydXBTWFZZMYzDDs gNweAEaMStDMJLKALaiagfDMppCDJEmUbLuzxdwFjILUQEO PbdVhpQyTcQUUtTWuPIwWmPIoIQMPCNXTPCe               
19670215-204110CMPzjoKtxCKSTNWLpRzJEjyVWiVEuzmYUTLdbyRHLSIgDUbYquZsCvOKJvFaWMu0000000039ACTVIVAA+ 1872111221818 Palm West                                                                                                                                                 37234       Chula Vista              CO                  United States of AmericaCillis                                        JAJBEnUsBtOADNGk uKsOVDtVBHGTeYcpOkcCLHunJGZLHgDArvyvUNaEPGkK                                                                                         
19670217-050058CMPSAFZEJLLiMLuOrGrCmR                                         0000000040ACTVCOBBB-1860041110795 Balmoral South                                                                                                                                            V6D 1Q9     Wilmington               AZ                  United States of AmericaDays                                          zmmRRtiYCa                                                                                                                                            
19670217-104235CMPUXKSWgGTVwuzWNnUV                                           0000000041ACTVBDB   1898120118165 Pecos Lower                                                                                                                                               93782       Berkeley                 New Brunswick       United States of AmericaSlater                                        QNB aGDulKWLkuSrNpLedMPumQFZkHOV lmXdHxsBTgMFGNqB Facpm GjoOiLYWKOFPrMPfgJsMADvavf                                                                    
19670218-172525CMPnUSbwozHKnjEMwDGEwifsBDVkWMEUCXcZRAlqaRyXugMDSPCvILEtSe     0000000042ACTVTNBB-         19156 Cherry Bend Upper                                                                                                                                         45218       Pittsburgh               IN                  United States of AmericaDemaio                                        kTPRJXAYZMMVHoTGHONkMMVVrntpfKSKNarTBWdAZIoVfcDHBCCzatsyaBMLrRiBDwSLZBEZvJCKF TkWPJlLDFtsLUMDlWMSSCyc UGmaxwZPKS                                      
19670219-203201CMPeyGBByYTpoRbgjJdHtPbQdJTXrTbcWTJkSHlPvDAkK                  0000000043ACTVPGB   1908121510541 Covecreek Rue                                                                                                                                             T6C 1A1     Austin                   IN                  Canada                  Rury                                          YzNEgKskJrAOEAWru umq                                                                                                                                 
19670221-115321CMPaoTgMQQOVPapOXWxUW                                          0000000044ACTVCLCCC+1925021922422 Buckeye East                                                                                                                                              95291       Dallas                   RI                  Canada                  Plantier                                      HLqiEBsLWwEQiqKeCKtwgHCyEHNFFSQwDChCEUeJREeNDsSFAQFI lOCJYLnMyO pVvLU drKVDflCFqmwpUMRcCDtOrT                                                         
19670222-140607CMPMDjVavoVSMeRlCAiXqmFZzvARFaNTAslRoYCUeWRGOXU                0000000045ACTVSMBB  1891080922986 Norfolk Lane                                                                                                                                              43602       Anaheim                  Ontario             Canada                  Reiling                                       azniCFxCSBzelXRaDSsoAYNOGaEdPeyyNuUPyOszEiGQHWzsoFGMRJOoVmuBARIQkFlswwjz                                                                              
19670222-213320CMPQTlJJPTwTIKGjWucWLFdQIFqUFDViLqZHmopzBSaxPctxonmQDYpdPzwRDD 0000000046ACTVIVCCC-1936110622712 Prairie Crescent                                                                                                                                          M6S 1I4     Denver                   MA                  United States of AmericaHakimian                                      uNWnsoaSBSIaSGSMQKPEJiQjiqw IEHkUX MnCkC SzCljlTSaTjXzhxmYa TKRiDMTwpbIFkbgLfLKQq                                                                     
19670224-204738CMPqzuJbEnLbLOlOtyvsWNfYJGAxriKRxn                             0000000047ACTVARAAA 1957042912813 Salado Boulevard                                                                                                                                          92123       Buffalo                  PA                  United States of AmericaOsika                                         FpAOLLNSNKaXUCbMvwmwHdpRG AWWaTiLIfMkCLXxBXhqllMJTPEZzBsNQPZLgPbafZAETPdrzATLKIZvUTUvPJSOBErgAtIckLlYYUVAl                                            
19670224-221359CMPyJZRFbHLdseBeTnJIpEmTJtfrrDaEFBWyS                          0000000048ACTVCHCCC-        11902 Monterey South                                                                                                                                            18102       Vallejo                  Manitoba            United States of AmericaVicente                                       UIROvptpUHNIKxzVmCLIPmhX HKmfL ATh xvNvfYkGFmeaRMOytJTISvFwoVyDukMLcnRod                                                                              
19670226-072348CMPBzijSDvPCIJvDDDXrPdu                                        0000000049ACTVBDBBB         20902 Ashley Avenue                                                                                                                                             90048       Modesto                  MI                  United States of AmericaPhilipson                                     FRolmcXxfoBrNkED Rh eRGTEnjQGKNBhmiwiMIVeEPCKfZPDPyBpLUNIVDAuqJObmGfHpFtLmQBBDuaBTNHymeDGCSsXC pKAegeuusSEogsPX iPxHUDCMDqxTmiERSbPLXdbKYoVSKJLjjhm   
19670228-113818CMPWKHSDaFEDSYXOynePKHWBGLeJ                                   0000000050ACTVFRAAA         5385 Young West                                                                                                                                                 80143       Mobile                   NH                  Canada                  Degrange                                      DSAWXXJpJtYSfjjPBUBSTtFBPzAVcLqglVlwFQ                                                                                                                
19670302-080719CMPAChNrBRFTkjZjDXSGVlG                                        0000000051ACTVFRA   1955091923355 Williams Boulevard                                                                                                                                        45236       Hartford                 MS                  United States of AmericaVanscoy                                       sNPgiYOxIlfKBTFTEscPGnNRqrxXeIOkXHkoQabCfzIXDQomJcIFUCFIuCNOsEBuoj                                                                                    
19670304-095343CMPVRCqMDchijxAuePBgjywAGgqrVRBEFpiTlAyRVbIdJsaEVtlYWHXc       0000000052ACTVILC   1901080423007 Wakeforest Way                                                                                                                                            V6S 1S2     Peoria                   MA                  United States of AmericaReiling                                       cktEzhvQkSaFh                                                                                                                                         
19670305-055821CMPELRDIvILDRFhUOPlOdBNRoJISmXZkKmyFIXaoT                      0000000053ACTVFOB-  1910042910484 Waverly Road                                                                                                                                              48913       Flint                    AL                  Canada                  Ragle                                         ZAwlFXsSzGdCEGLqPFslXzVrBlxRwwAVJGkFcXEBTBFxMAeVdKBX                                                                                                  
19670307-023412CMPbDehSFMUUzvBayHEfHPXduNBnPkf                                0000000054ACTVTHA-  1911022018716 Greene Drive                                                                                                                                              30310       Fairbanks                Ontario             United States of AmericaCascio                                        vcHbIKfpzWZZDo RSHEcACakJxSFRCPHzTUwvRpjUvcBILfLnfhgpKCRAjbDiUaKIkRSkAFD                                                                              
19670308-100340CMPCVRXvUkWOxdMcWRMhABiVpiKwSnFEzHzbbeQ                        0000000055ACTVTIBB+ 1959121213652 Westerley Drive                                                                                                                                           73108       Modesto                  OH                  United States of AmericaElerson                                       qBpuibzIPSxscMgELVkooNBGBCUhiWLAysTXvFPYMrT GStjFWtBMgfHPFYeldOzagbWIUXMTgytDsoAalpPgLtCnsawoatLzF xJjDVpCiQoEMePWNaGQmOcaGVXxQLezZo kEwnUSRDYLCn     
19670310-044104CMPcaOaabgKJQaXSZiUGJIHBtXLntUfKAkQvMDyj                       0000000056ACTVIMD   1938041017300 Belt Line Upper                                                                                                                                           M5F 1Y5     London                   WV                  Canada                  Stacey                                        muGRBjiMtUGSvdszdjKHVfsEMxnAyKLbStsFarCFeomTYPgGMpUyREkORCKuxVyRzoLwFha kxAFmWVRc GmpYzoOHEowCOuMBndGeVpn VjsFD                                       
19670311-210050CMPjnhGOQaSGPLzBRc                                             0000000057ACTVTHD   1926072410253 Oak Grove Avenue                                                          Apt. 478                                                                        44106       Peoria                   Newfoundland        United States of AmericaHarcrow                                       MRRG G IwRAUaYuzXHeDGSiTxTLJmGOfSFIScCPJfG                                                                                                            
19670313-192609CMPQFRbFMIOhFIvNDHHKUIHIwUDsyiGpkDUVMQO                        0000000058ACTVFPBB+ 1951072721182 Keswick West                                                                                                                                              T5C 1T2     New Orleans              VA                  United States of AmericaMclarty                                       KEGwsBnmMekfJPhPxjfIRjjOLrNPP QhTdskrJnUiNQtpOwTRGZGPAujGTJQnLzHKCfqqIwjEFwNayHEWQOWzAw tZYHTwHIxJwDVrncLZO c                                         
19670315-182828CMPVXpGhfFbmgISLSMZVQlpBtNxkRhiLKvoTFIEKvFgIOL                 0000000059ACTVFFB+  1945111924675 Seneca Road                                                                                                                                               V6L 1Q2     Montreal                 OR                  United States of AmericaWeers                                         rZSCyakdjLivcCDPaIRpdpgsv                                                                                                                             
19670316-193132CMPdGTSaPOJMHvtCCHelvrPOQXnY                                   0000000060ACTVADCCC-1867020317068 Imperial Drive                                                                                                                                            91350       Richmond                 LA                  United States of AmericaSontag                                        UxrKJuLXTnSKjRybbFTobJnMBpHmKvCGNhhJMDtOsKUs vnXTldNoAFZUddwyCcxVSQLfiSnbUegACkVHUlieKpAfifIRuGdVJJyRJAxB lyp POTZhPkAK                               
19670317-083633CMPPTNTHCLWsriUMNBFhDQDGtmBPPNiLOSaNy                          0000000061ACTVPPA-  187207314348 Wedgewood East                                                                                                                                             V6H 1Q7     Baton Rouge              WI                  United States of AmericaEllerby                                       AGXBFzesXPGkLKPupRlmPDeMswUKTBZAEVNHZGWePzPeLJrjRwqxVMhUOoHDIqMJwYYBXkXDlFxeRZFFZBQAulzTgprEZPydRSJzbYLnYXDKTzRhFOFoJAG                               
19670318-122102CMPkCGxWShTICEMykTPjwUmen                                      0000000062ACTVSPCCC+        9863 Boll Boulevard                                                                                                                                             82601       Saint John               Manitoba            United States of AmericaVandenburg                                    VLKtWMBrONDIlIwLJtsYSztBUgEKjqoJRITCeMXztUfWQiKRHKGOIwckDiCdQztaNOVKQSqYEcEUoSEKYFXlWvEgfmbhOcXIJkbDyZQKaS wvAAPKDRkLSnRNOYoFv                        
19670319-091005CMPxUJWMEEmEMdIWSDGXW                                          0000000063ACTVJSB+  194001063375 Sakowitz Lane                                                              Apt. 691                                                                        V6R 1W9     Springfield              New Brunswick       United States of AmericaHerold                                        trEZkEWyTOACdpHTEobAOjLpJUiEbVEKOFXFXrzGBAwQTFA VStxTSAEGmLBSssA MFQKAMHTAnqEoJPM                                                                     
19670321-112959CMPXDnNdfGcCiNIOwdZoWMTZgVYEOsHLSH                             0000000064ACTVTNAA- 192401157944 Nealy North                                                                                                                                                T5A 1O4     Las Cruces               WA                  United States of AmericaFigueroa                                      IEwuxzVVsHEKOBZvYLUXLBNQl uVAgdFEDDGwlHasMVtsHWVsREIBCvHDxdjygOvCZHeYMBGlipNhYOOyET xROrbelJFypFDD                                                    
19670323-064022CMPNiBcGbDvQsFXSbRxOUPzUvEKLCXRVlDFrhOUHduBWHC                 0000000065ACTVRSip  192405158428 Roberts Way                                                                                                                                                93338       Santa Clara              VT                  United States of AmericaHustead                                       gohyVVGtHRBuELMFeONuUo                                                                                                                                
19670323-101756CMPLoSyvUwXvGnKexKhSbbtArGnpUcArarLDzSDOEMMZBwKPwRuADFxSFJ     0000000066ACTVCXBBB 191210076941 Trail Lake South                                                                                                                                           90182       Elizabeth                GA                  United States of AmericaGallati                                        UbqcKJEPGlogIFFiIPmSZGccobSeLcdrDfgtNEZarFRsRUFRQPbiWMMYwflNQtopKNThnOAeFVGBaNNjoAoyMzArUyRpRXaTMLPhJmoKexHOuLU                                      
19670324-022913CMPYNouztDEEgVJnWzrV                                           0000000067ACTVPPCC  186908024371 Ashford Hollow Lane                                                                                                                                        38186       Rochester                Alberta             United States of AmericaTyl                                           loUWqFOsWSHzSuvDMNQr                                                                                                                                  
19670326-073639CMPhUAyAuPbTqDYKLMtyUtVl                                       0000000068ACTVIPAA- 1905092411528 Edwards Lane                                                                                                                                              95254       San Bernardino           WV                  United States of AmericaHarrow                                        BJPjEBiLafqfVUHdPLIIOUVoenJyBmVsTybsciXYwacTMKZCK OSaOhZ hrvKGCaKCHINLGDGyDUWpWnfbVXDjKmAEPu VlMJIJSPDBpdfgTMgZIJEcwInAxEbzQHIWjxxcyODkBDrapF         
19670327-181120CMPGKXARCFbFebKiAlLUJXKJgRjmqXdAQcnJFJAKTzRouxMxMVkXQMjtVZu    0000000069ACTVGSAA  19140524351 Ennis Way                                                                   Apt. 155                                                                        V6K 1U3     Saskatoon                AR                  United States of AmericaBosque                                        RNSPJ JNcVteXKNhOtxrIwmOpgLMtWPzIKjWiKqkoCqbTTSCBzHX                                                                                                  
19670329-012716CMPKCkPotwrqSQFGNsyRmfAqMDPgLswKnMFgi                          0000000070ACTVFFA   1858041721049 Chadbourne Avenue                                                                                                                                         X1G 1S1     Tulsa                    ID                                          Johnson                                       JBdKZwdpwPJTEcQmiMkAkoaDBPcdflXkyNfENJMpPNPyOAFEqvFzpojXFvspIfrEo                                                                                     
19670329-060657CMPzSzyZVwpMSypTaf                                             0000000071ACTVJSAA- 1934011320025 Routh Crescent                                                                                                                                            36649       Henderson                SD                  United States of AmericaBaudoin                                       wUOmTgLzKkUmumowvFuPESIlAgTIjDZQrNVUFbqwgFRLhkNgpWtMONUUQSgIYFvcSoAUJzYQeXzbYnhBmukLDRWFTPxXuKvPTMEZvBJnTGwFsbGuxnvSAlNQIOkVQSbJ Q                    
19670329-062427CMPYtvHEQBjudJlIIctWcFxmnzyLLXwZIjQbTYYSJjShQPPW               0000000072ACTVFLCC  1951030724701 Pembrook Crescent                                                                                                                                         32834       Orange                   WV                  United States of AmericaKirsch                                        kVNNUlVGTDMtNMbjgV SEFIXSXbrGSVaZmqIHONZcjHzKUoJLzgsCTUtjtmiVpUCJvGeETyXCSOOGrSlCjGLOg mJzCGBuHiaFyVsoGMcNbLBGywlmaMXPTjajmmR                         
19670329-155613CMPBELJVClFSUDWQNFrxaHxDDEMSOMNqTeWbFtIh                       0000000073ACTVDRD   1953122321985 Oakhurst Court                                                                                                                                            25712       Stamford                 WY                  United States of AmericaShugart                                       AwdDE hROOmGqaxYOOCGScTThDVGkLQCRy                                                                                                                    
19670331-033638CMPjlkBZXPcVEbEkvquHcRWHHHVGNQxJWnBWpCCCKENWGMjHFABR           0000000074ACTVCVBB+ 1949081918008 Bigwell Lane                                                              Apt. 192                                                                        78245       Rockford                 WA                  United States of AmericaNelson                                        mRzMlM BYhKNvA DLWvPHVhGdVDRUTxNQjIkbTexWMJVCTNOWiDxrytVMDtsFQZEKVrVdzGyABBIYSvRIkVgaDwORUnObQEishvZZyKBiKLfkYUOECwByb BQLrCWGlQXeBxqAbiD             
19670331-235958CMPUfSHWSCITBCAOZQunWBPoRwGIRuCUoPSdEQARTADOJmAyACdfM          0000000075ACTVOSB-  1851040623890 Bay Street                                                                                                                                                99611       Miami                    UT                  Canada                  Lekas                                         TEUEZXJoHNH                                                                                                                                           
