19670101-085947CMPkkhSvCsfgbDUvsiZWtPQwjkYPwKrfTUFMGMCWCBXBcOcTkaLSudO        0000000000ACTVDRA   1886072219918 Rogers North                                                                                                                                              35233       Long Beach               NC                  United States of AmericaEllebracht                                     CUpESkLIQ LBcTnhDEOCLVhfDjOopGKRBxRYGboIrPFcDxMSGkskSwAJdAPWSAPTf T                                                                                  
19670102-063517CMPTGfFOOldnTHLjuAaQqJBgbibktVyiLStkrLCynHAZNCp                0000000001ACTVCGBB  1854020818065 Four Points Drive                                                         Apt. 398                                                                        T5C 1T1     Atlanta                  Nova Scotia         United States of AmericaSchrupp                                       CDQRuWjWYOxAXaxBmtiD ZsEcVdDdKZ gRBLzFSDejX UcSmRApkRBipTTGkWs hZqXkpvMsXFziJURrJLjfXBNHbnq XJUUkgfXRHUBMTsHGYahLMAHmNOUTAKAh fHaTI                   
19670102-103425CMPjRhDJJDxLPxUEMMpdhzdZNqRVTuzMCrlMcwMsdHNvIEBwDfErPG         0000000002ACTVSCAA+ 192103275397 Gessner Drive                                                                                                                                              37933       Stamford                 CO                  Canada                  Setera                                        NWRSuluTBHdsBdoLBKORDOmaM MNCKssPPBLngSJOOhjvUhajRiEREVEnOVZIAVHgkYzJELLsIQrJlCXSFJGZBhBsFFNQUbiFRsIoHcahXzFnOBRPFJwSkAZCwHYONWl                      
19670102-234954CMPRICOfhFDpPHwKRHsmPHYTpTzGDeJMQruPEEdPICrMiweHGwOFQYNoQXZWIjN0000000003ACTVTIA   193003272387 Halle Lower                                                                                                                                                E7O 1I5     Elizabeth                Alberta             United States of AmericaDorsett                                       EknTgdSRAbcjFnBQGkGhZwYKmsR DUnJcPlOMlLRcusE                                                                                                          
19670103-163037CMPgIOONPxnQUwBdFNEMLBUXdUbFPDWDVOVnWIIMRpOMbaMGipmCAICpjncsHs 0000000004ACTVEIFZ  1889041720644 Birchwood Way                                                                                                                                             V6D 1P4     Fort Wayne               VT                  United States of AmericaThursby                                       EXoxOMwRbSK ajeCNjiuEAxqzPKYpuNgBxxNMJrPYCXicCNNVXKbROeFROToBqgVhwndmvWzBJRbaCUzNDHKcljPkfRjItSquPfbNUqPQBDotrKSMsFnOLMmXRdTNwZsE                     
19670104-142009CMPKRtMROFTkhVPydRKxEDtVV                                      0000000005ACTVSPBBB-1864112911323 Clifton East                                                                                                                                              90229       Garden Grove             NC                  United States of AmericaBasey                                         PSEFWVRYboJDCCbkRDGNzIyyBMeYi l PU qbrWLFDMBJAeRxWX UWMRKCFDNeHyssAbznTMCAtMRmhLSocEznZAgUDJzcLHLaH                                                   
19670105-010703CMPdiqlqOsDpYaNQhSPBbXhMXocCDXEfNMfLDMDHOdpovsklTN             0000000006ACTVCTAA- 189001293833 Princeton Crescent                                                                                                                                         40214       Phoenix                  RI                  Canada                  Leopard                                        mzRDwfNsLqwBLQedZIFTCCxaOnKHqwyD cqovHXAqgIsnRUBakGDMKeOSGIZMrXApUqoqxDpgMcJwgPGDQURpTAzOSIkfOKRJGsPeJumOTYjDVLByShyjrMYFxSzPMlAxNHEHGzqTJnHMFmpFJK  
19670105-212854CMPJaBRAUCPDCLITNXXrADVCSIopfxogeRFkYFvBVlr                    0000000007ACTVCTZyG 1903040919309 McFarlin North                                                                                                                                            60612       Little Rock              SC                  United States of AmericaAird                                          EoxwpIaSiVNkSIbAPRUTUVAnyUQpVyHrLpJUULKOGxxWlAyDfPudALpC ncyZpcUBGLCEizruOCLzBEPhoVUADcFJOUdmJXBcgjCCpKQQFKjquitvKLtxRwQtQwISaS                       
19670106-204407CMPAYrIhMoBIgUBkRdxKABPjIIShjxFyaWTAsK                         0000000008ACTVCFB-  188501159592 Carlingford Court                                                                                                                                          91910       Jersey City              NJ                  United States of AmericaSchindele                                     CubhsavcGhxQbtcjOHVewfWPlDftSehpfEaHdXptufiuxQkpsXSswfCIUVhsrUlpFUeJJmHXvwJSJmWDfQHgWXqoYoIZRhlmU ZARuVfVQZATCT rMttK                                 
19670106-222423CMPzZCyFkqieiPsUGvBJwvhXNW                                     0000000009ACTVMDAA- 196510201427 Addax Lane                                                                                                                                                 V6W 1U2     Berkeley                 Nova Scotia         United States of AmericaKalafut                                       kHAfHUvzVZKjUOvZcFghDkcCDsFjH                                                                                                                         
19670107-234223CMPrjkmNkyRrYnpSUDcOqIviweufHAQzFKBSXsYPAcKkbMbBVsEUWMNMRKJZK  0000000010ACTVTIBBB+        16547 Danvers Rue                                                                                                                                               94489       Palmdale                 AL                  United States of AmericaNelson                                        DSGKjAatPllQoVYFdO sxtAuqGWHxWCZjjFtsRjzLaZOAV                                                                                                        
19670108-115856CMPgDqcCBxupXLOeBnjyoDuJKKpXXazMTBejzLaoxVkzpfVHbeQYNnEL       0000000011ACTVWUAA+ 1957110522376 Burton Upper                                                                                                                                              10211       Lowell                   New Brunswick       Canada                  Mckerchie                                     jruKsEtvzWUoVEbZQDmUboPYXQIFGSVdnRCBrcRACGbiGZRINHI IBLfMvShSpFJouITJcuQGbSmKLdaxfqPVWaIQViRHSMbFJoJGVPpVqZTJdqjZOIpQvcuCo                            
19670109-054217CMPEOMpasJigJVvYQGKVcDPddEniaOUaTojpCAmYQrUeZJEGo              0000000012ACTVOSBBB 1897090611167 Wolfe Way                                                                                                                                                 B1C 1X4     Memphis                  CO                  United States of AmericaProud                                         LCJEKmvsuZzCLbvDuxiTEIDb                                                                                                                              
19670109-141855CMPvnbESGDLPDBDVwsKNSXPqRYLGXjuxVJrQDsEcEVAYIyXWMFThaGbMIZNd   0000000013ACTVSSBB  1965112614719 North Rue                                                                                                                                                 10133       Montgomery               IA                  United States of AmericaModha                                         OhFmCmqqcTnRKODFDpCttrIvGNSBdCJKxkmDNLeTBrCIHsQfFPeTvTKWPCJPFpJLGlSvHNJRTYkAVmTwBvGcCwGQHrRMgQotGZIYGmfRADEdIQKc                                      
19670110-175304CMPUxwoFfdmLfKmuJCZStrMNOScJQzWthcXUUiyvsPHTsRlAJPOiKyvchxt    0000000014ACTVACB+  1937032924277 Pico Upper                                                                                                                                                35823       Anchorage                TX                  United States of AmericaMantini                                       iugHxskDEQORGLXHTHBgyWEWIrpgIQXkYiSNiouZINKVezIoRIfStLvfcrA ekjifGHetXpnnLSEmMuvNxtkxtLVADBTCDfJlBBuRRyrXtnzcJYpVeqf DFQETDDEPg                       
19670111-141313CMPYGODXTYUYQHKSUzVdmTrHaaZEgiuZLXAwzvjFZMnWXdUSECjfiOJYU      0000000015ACTVPAB   1871032115176 Purdue East                                                                                                                                               36638       Jersey City              WA                  United States of AmericaLaunius                                       aqaCEbWGFxMDRkXNACaxqZjSu cERxcKLZEHBCVNyJIqHHAlGMGVQAKaiUHnCSMRFPwlGHRuZkZJscQlQPzIDWzACODYjsUtIIrSyXQpJjLRZyhbTPwyjmJXfCnQqEpwzXQ                   
19670111-171505CMPBlzKUNpcdbxQGHwUAaQlIXGgyZmHnyRREOKBwpXvXwwWEOWiNJVMXWALS   0000000016ACTVCKCCC 1868010415927 Flagler Way                                                                                                                                               73140       Tucson                   WA                  United States of AmericaGalizia                                       FOwdnLOyVOIyIMXSCmUmdEPFWnqJvQQnekukvmPxkRTh                                                                                                          
19670112-080121CMPJOlePeOMqNiWFtIikbYCtGoucRYkTNggTpiDSTEocDbaMdhzl           0000000017ACTVREDIq 193207298357 Buckeye West                                                                                                                                               75237       New Haven                IN                  United States of AmericaMantini                                        wuHpeHmnuetuEgRwMGICaiCmDMCSAkBhfHSehUwwJEhSgOdCZRGQFUcEBlQktlJISrPScVkJFGPrUPjIASwbISIG SMCgQwhmEQgBXBDsjisQPSVgTLRXPJluhDTWdkKEDrOqymIpLEeDzrsPn   
19670113-071233CMPiAJNmDakgxlQcGOiloFqkXDmRxJezUSKSBPCvqFfSbAlV               0000000018ACTVCDBBB 1867061916775 Pike East                                                                                                                                                 50309       Hull                     Ontario             Canada                  Beverley                                       FWnrIwwvUgVGwQCooZxqRBqAqhqUpvHuNJwBjwsImTuBCMUdAqMIVpoChkLKEzLVOBMjBxPeEYAjKYQpBOGVTIhOZxtUYX jIpZTMXYTmwbGVIdRuFjKzJwPZV                           
19670113-085052CMPlSBXSwESnnboFFeSvHxFjlfxrwIZABfGMjiWUbhTmnRHnPFOTMlMAQnZJA  0000000019ACTVBSCCC 193004242682 Lumber Park                                                                                                                                                80225       Santa Clara              DC                  Canada                  Thursby                                       BAJD NFwWAUg                                                                                                                                          
19670113-215000CMPXdCwDlGsXFstGqdCIcNOKJfTOQPnoEeELXbNmwOl                    0000000020ACTVHMAA- 191710272579 Creekbend Way                                                              Apt. 177                                                                        90053       Topeka                   DE                  United States of AmericaDengel                                        PbEXTLxQMjUFVigzlINmXkOMkKRDqdQLlcGKPE                                                                                                                
19670114-112449CMPjmClCXBcZwINVyetRxHbWYRbsYBIFkuIGtecXWIN                    0000000021ACTVRSCCC+1860100719932 Clower Street                                                                                                                                             43623       Macon                    IA                  United States of AmericaCascio                                        YCaFAYUiNzTMf brahQDhkmJBBDYZZNVEsNKhhXDlIEZbQ UrvozWyERX CAFjLNLgdPiyDcXEVxCIRF                                                                      
19670115-012713CMPnFkXCFIQQcAPOHRuYtieKkGSZpAdCmvxWPuheWUSLiFkN               0000000022ACTVBDB-  195706184371 Ashford Hollow Lane                                                                                                                                        44312       Sandy                    MD                  United States of AmericaDegrace                                       JTQvSVCJVqUQFgkUESYHOwYeRSHHrqPPjZrqwUvnJrKaMcCLXLETVpTaGVsNVxbWanUeeTXvhZBSmhKShJsOPpGXUTFQKgePpPUL GzkCIzDHTLcesmM                                  
19670115-132528CMPzScyndwxOcLUXIwtrdKPFPDeQiYudN                              0000000023ACTVCTD   1859080911976 Halms Upper                                                               Suite 225                                                                       92177       Fort Collins             MS                  United States of AmericaKosky                                         mqCvWtLtyfDNHPrgOJLPWDAnj yHTINEBwULFDVBmm                                                                                                            
19670116-124008CMPrqMbvwSCBGYCGMEPKQeELcTKYUzuwRMWTqYPIirIgRbOCStxEXLeiAEZJCb 0000000024ACTVPGC   194711266963 Emmonds Drive                                                                                                                                              72203       Cedar Rapids             VA                  Canada                  Stuckey                                       BEDwOgbUNsOzCnpFsfGMcUBkXpJVqtbHLWnYDZdBwILkcSzRTK tONaTJKQ                                                                                           
19670117-040350CMPyRflLhHvroMJBNHcMIDiQuHspAHUTFVE                            0000000025ACTVCOBBB 190807248457 Fennel Rue                                                                                                                                                 95202       Boston                   AR                  Canada                  Roston                                        RSFPXlKBkCFvSOOaRBIQOEEPT mIRuTOQCSBshaPJEFfCnnSyodGFBGFeSkgrugFDMycC AwouYYfgOPABQQEURRoQSlExPEkKjTuTsPE oQFJVyzYFX                                  
19670118-024953CMPyzVtIWYoRQKKPNbDwXqdBMdFXWIZfiTteG                          0000000026ACTVCTA   19470112292 Sakowitz Road                                                                                                                                               94434       McAllen                  NV                  United States of AmericaDibacco                                       OGLzZfBtCPCMWIhYcrKDHfrXARneOJkNSeRyOfFsBUeByaNS SovvQwYOsaAtoVYBOYhCcpEeivSCWWnXYHwPOwLBJ SIIIGIMeVeTzkSPxRy                                         
19670119-013719CMPVNUMGRlTCSQKEfjLfhaUANwnlPAHDkoFxyHfydObCUUeDgBa            0000000027ACTVWMFrD 188608092336 Shelter Rue                                                                                                                                                37405       Austin                   British Columbia    United States of AmericaDiel                                          RpMKizqHECrKZatHKIARjWHKvOBGfCQStJIJWdkFovmpjAmEKEFFSKlWmvmcTZzzifrbZwrSxR ZhzEy eRFDgI REPTvIEEpNkkfnUQGDxJJE OopbOKnEONkdlzVWQWNLl                  
19670119-133254CMPIiHkvFAHjNrDbHaXULOVQWMsfQI                                 0000000028ACTVOOA+  1900062121605 Gaston Boulevard                                                                                                                                          T5A 1J2     Chicago                  WY                  Canada                  Keleman                                       DvTIVKldUTWFOxmakkTaaMlMTGySiRHkTddOHUTQRyUYiKIOEL mnPZITGtwKDJwSimxjfdfPbeMEvfxIJGUBurEeAbSiZq                                                       
19670119-150930CMPLRYKYZXBcxmTSSowQAFUfTJRSoIvPgvimQgPedHDROTgzAImiQMWqxVFPKu 0000000029ACTVMTD   1949011422649 Weyland Rue                                                               Apt. 821                                                                        06127       Miami                    NJ                  United States of AmericaHynes                                         AsaZbCvkkWJBSnTlBFkywlLEWXPzIKNOKOTIIkZmpcIBN IJBVcPmEzxpbgdSABhDIfHyoLdncOkNQBpINXKRRRCRbn yPJENfTNzriDDVMmSLU                                       
19670119-181808CMPGQgODZYcTEajaEMYDrWGoMdiJOENBaMGcnwYwuNTRPoOXXVjWD          0000000030ACTVDRCCC-187604265391 Clay West                                                                                                                                                  21219       Buffalo                  Alberta             Canada                  Falvo                                         iSfTwyiKDDK                                                                                                                                           
19670120-091013CMPBCRRYMzpoAimKRITzLWLsoomeKjnZvguJDE                         0000000031ACTVIMBB  191707107879 Park Hill Court                                                                                                                                            46214       Escondido                HI                  United States of AmericaVanhuss                                       rcDDAUbrUsAKUUbeRSTzFoGUKlRtRFfOpVJSDYSWXMPBF YrGgzkKSbqoGIamtAdC wEIVCTJFqESyDeIVmnqetcXRwaQvFTPyLrtoUgFWugcIasZdNFSTcLFOqiwsNKMQYhOwKafORHgSfnp     
19670121-093432CMPWCJJAitQbHnCKfmKEVEELEBjYtHsVGTBpOMMCLXEadMPRGRTA           0000000032ACTVCMBBB+190302272061 Congress Park                                                                                                                                              T6A 1D4     Vallejo                  WY                  United States of AmericaClemence                                      gLGjJgEPgDmYKXcKORXoGvCTarEskGPFALWprHYzqirEESSMuhewvIAUWfbIQaNOBNtozHRaACQpiKHNwDWFIJuDfHZtqrERSNipMnVqYrwWsCRpJFLhpCKOdAotUQU                       
19670121-163418CMPqNBRLBcNHRMNCOGgoLutSmLjluU                                 0000000033ACTVHICCC+1889083116119 Penmar North                                                                                                                                              95166       San Bernardino           DC                  United States of AmericaWhisenhunt                                    bIofJd IqcSvNYbrRZFMAaZZzHwOOlVyRRXDlCDDFrPxsdAmYpRqLJINYedlVUCMjanAtzqAW                                                                             
19670122-151054CMPyRPdOOYwDRIgGtBTaFzyuaZQ                                    0000000034ACTVPRBB- 1928080122074 Dexter Upper                                                                                                                                              90397       Memphis                  PA                  United States of AmericaBradac                                        LDGrhRgCvZuKEPnwVUEocB ySKGtRizEv puk HplYNgIJiUoJvG pXEvDirqyIrfwxIvGEliI                                                                            
19670122-211732CMPsOinkIiTdaWTBlAuXFDL                                        0000000035ACTVEIC   1871101910526 Linwood Lane                                                                                                                                              37405       McAllen                  MA                  United States of AmericaMagda                                         hUYDrENWnTtzNHUxpTpUDhCRsPxfuAfQGFwNPDYLDAGUMTNozDDkkAsFYiPmHrkgVFFZBMFIn PqPJoXdugkplVSMUzJsPIQFS                                                    
19670123-100812CMPTzOOKJSXlzetRDAZNOaBGRiAoYkrPjDLzvR                         0000000036ACTVSCB-  1936070315712 Trend South                                                                                                                                               33188       Hollywood                VA                  Canada                  Dolores                                       vmZqlleSVZRfCJxFDbEuBVKINfxOAnNEPqesUGCFVeK                                                                                                           
19670124-041229CMPPGDBgEZqRneMoLzzQWIWKPqUm                                   0000000037ACTVSCA+  1930071316764 McAfee Park                                                                                                                                               V6M 1S7     Little Rock              Quebec              United States of AmericaTarzia                                        hPWPwQ LKqAhPtqLLQbsUFAoPXjsrVEc DNKJgSsOSQIlbLpvHAnJnDqxspZMSHcEOnVXzSzINjdzCHeWcIPAMUBUFfFQTlYT smxLeihJPFzuuqvqKWiygxzeOOHGPBFKCRvadNhcMvD         
19670124-074338CMPPozAgYtmghzwqacMhOFSFF                                      0000000038ACTVSBBB- 1884120712279 Trafalgar Crescent                                                                                                                                        V6G 1T4     Fort Lauderdale          Manitoba            Canada                  Eckland                                       JmyvpFSSRQHyVCJUUJZbmBJJgcuGLUCs rpydXBTWFZZMYzDDs gNweAEaMStDMJLKALaiagfDMppCDJEmUbLuzxdwFjILUQEO PbdVhpQyTcQUUtTWuPIwWmPIoIQMPCNXTPCe               
19670124-125422CMPzjoKtxCKSTNWLpRzJEjyVWiVEuzmYUTLdbyRHLSIgDUbYquZsCvOKJvFaWMu0000000039ACTVIVAA+ 1872110721818 Palm West                                                                                                                                                 37234       Chula Vista              CO                  United States of AmericaCillis                                        JAJBEnUsBtOADNGk uKsOVDtVBHGTeYcpOkcCLHunJGZLHgDArvyvUNaEPGkK                                                                                         
19670125-052956CMPSAFZEJLLiMLuOrGrCmR                                         0000000040ACTVCOBBB-1860040910795 Balmoral South                                                                                                                                            V6D 1Q9     Wilmington               AZ                  United States of AmericaDays                                          zmmRRtiYCa                                                                                                                                            
19670125-082516CMPUXKSWgGTVwuzWNnUV                                           0000000041ACTVBDB   1898112118165 Pecos Lower                                                                                                                                               93782       Berkeley                 New Brunswick       United States of AmericaSlater                                        QNB aGDulKWLkuSrNpLedMPumQFZkHOV lmXdHxsBTgMFGNqB Facpm GjoOiLYWKOFPrMPfgJsMADvavf                                                                    
19670126-001103CMPnUSbwozHKnjEMwDGEwifsBDVkWMEUCXcZRAlqaRyXugMDSPCvILEtSe     0000000042ACTVTNBB-         19156 Cherry Bend Upper                                                                                                                                         45218       Pittsburgh               IN                  United States of AmericaDemaio                                        kTPRJXAYZMMVHoTGHONkMMVVrntpfKSKNarTBWdAZIoVfcDHBCCzatsyaBMLrRiBDwSLZBEZvJCKF TkWPJlLDFtsLUMDlWMSSCyc UGmaxwZPKS                                      
19670126-140553CMPeyGBByYTpoRbgjJdHtPbQdJTXrTbcWTJkSHlPvDAkK                  0000000043ACTVPGB   1908120310541 Covecreek Rue                                                                                                                                             T6C 1A1     Austin                   IN                  Canada                  Rury                                          YzNEgKskJrAOEAWru umq                                                                                                                                 
19670127-101747CMPaoTgMQQOVPapOXWxUW                                          0000000044ACTVCLCCC+1925020322422 Buckeye East                                                                                                                                              95291       Dallas                   RI                  Canada                  Plantier                                      HLqiEBsLWwEQiqKeCKtwgHCyEHNFFSQwDChCEUeJREeNDsSFAQFI lOCJYLnMyO pVvLU drKVDflCFqmwpUMRcCDtOrT                                                         
19670127-234459CMPMDjVavoVSMeRlCAiXqmFZzvARFaNTAslRoYCUeWRGOXU                0000000045ACTVSMBB  1891073022986 Norfolk Lane                                                                                                                                              43602       Anaheim                  Ontario             Canada                  Reiling                                       azniCFxCSBzelXRaDSsoAYNOGaEdPeyyNuUPyOszEiGQHWzsoFGMRJOoVmuBARIQkFlswwjz                                                                              
19670128-033431CMPQTlJJPTwTIKGjWucWLFdQIFqUFDViLqZHmopzBSaxPctxonmQDYpdPzwRDD 0000000046ACTVIVCCC-1936101922712 Prairie Crescent                                                                                                                                          M6S 1I4     Denver                   MA                  United States of AmericaHakimian                                      uNWnsoaSBSIaSGSMQKPEJiQjiqw IEHkUX MnCkC SzCljlTSaTjXzhxmYa TKRiDMTwpbIFkbgLfLKQq                                                                     
19670129-034910CMPqzuJbEnLbLOlOtyvsWNfYJGAxriKRxn                             0000000047ACTVARAAA 1957040512813 Salado Boulevard                                                                                                                                          92123       Buffalo                  PA                  United States of AmericaOsika                                         FpAOLLNSNKaXUCbMvwmwHdpRG AWWaTiLIfMkCLXxBXhqllMJTPEZzBsNQPZLgPbafZAETPdrzATLKIZvUTUvPJSOBErgAtIckLlYYUVAl                                            
19670129-043328CMPyJZRFbHLdseBeTnJIpEmTJtfrrDaEFBWyS                          0000000048ACTVCHCCC-        11902 Monterey South                                                                                                                                            18102       Vallejo                  Manitoba            United States of AmericaVicente                                       UIROvptpUHNIKxzVmCLIPmhX HKmfL ATh xvNvfYkGFmeaRMOytJTISvFwoVyDukMLcnRod                                                                              
19670129-213443CMPBzijSDvPCIJvDDDXrPdu                                        0000000049ACTVBDBBB         20902 Ashley Avenue                                                                                                                                             90048       Modesto                  MI                  United States of AmericaPhilipson                                     FRolmcXxfoBrNkED Rh eRGTEnjQGKNBhmiwiMIVeEPCKfZPDPyBpLUNIVDAuqJObmGfHpFtLmQBBDuaBTNHymeDGCSsXC pKAegeuusSEogsPX iPxHUDCMDqxTmiERSbPLXdbKYoVSKJLjjhm   
19670131-002326CMPWKHSDaFEDSYXOynePKHWBGLeJ                                   0000000050ACTVFRAAA         5385 Young West                                                                                                                                                 80143       Mobile                   NH                  Canada                  Degrange                                      DSAWXXJpJtYSfjjPBUBSTtFBPzAVcLqglVlwFQ                                                                                                                
19670131-231315CMPAChNrBRFTkjZjDXSGVlG                                        0000000051ACTVFRA   1955082323355 Williams Boulevard                                                                                                                                        45236       Hartford                 MS                  United States of AmericaVanscoy                                       sNPgiYOxIlfKBTFTEscPGnNRqrxXeIOkXHkoQabCfzIXDQomJcIFUCFIuCNOsEBuoj                                                                                    
19670202-004558CMPVRCqMDchijxAuePBgjywAGgqrVRBEFpiTlAyRVbIdJsaEVtlYWHXc       0000000052ACTVILC   1901072223007 Wakeforest Way                                                                                                                                            V6S 1S2     Peoria                   MA                  United States of AmericaReiling                                       cktEzhvQkSaFh                                                                                                                                         
19670202-110414CMPELRDIvILDRFhUOPlOdBNRoJISmXZkKmyFIXaoT                      0000000053ACTVFOB-  1910041310484 Waverly Road                                                                                                                                              48913       Flint                    AL                  Canada                  Ragle                                         ZAwlFXsSzGdCEGLqPFslXzVrBlxRwwAVJGkFcXEBTBFxMAeVdKBX                                                                                                  
19670203-095733CMPbDehSFMUUzvBayHEfHPXduNBnPkf                                0000000054ACTVTHA-  1911020318716 Greene Drive                                                                                                                                              30310       Fairbanks                Ontario             United States of AmericaCascio                                        vcHbIKfpzWZZDo RSHEcACakJxSFRCPHzTUwvRpjUvcBILfLnfhgpKCRAjbDiUaKIkRSkAFD                                                                              
19670204-020717CMPCVRXvUkWOxdMcWRMhABiVpiKwSnFEzHzbbeQ                        0000000055ACTVTIBB+ 1959111213652 Westerley Drive                                                                                                                                           73108       Modesto                  OH                  United States of AmericaElerson                                       qBpuibzIPSxscMgELVkooNBGBCUhiWLAysTXvFPYMrT GStjFWtBMgfHPFYeldOzagbWIUXMTgytDsoAalpPgLtCnsawoatLzF xJjDVpCiQoEMePWNaGQmOcaGVXxQLezZo kEwnUSRDYLCn     
19670204-235949CMPcaOaabgKJQaXSZiUGJIHBtXLntUfKAkQvMDyj                       0000000056ACTVIMD   1938031517300 Belt Line Upper                                                                                                                                           M5F 1Y5     London                   WV                  Canada                  Stacey                                        muGRBjiMtUGSvdszdjKHVfsEMxnAyKLbStsFarCFeomTYPgGMpUyREkORCKuxVyRzoLwFha kxAFmWVRc GmpYzoOHEowCOuMBndGeVpn VjsFD                                       
19670205-204143CMPjnhGOQaSGPLzBRc                                             0000000057ACTVTHD   1926070110253 Oak Grove Avenue                                                          Apt. 478                                                                        44106       Peoria                   Newfoundland        United States of AmericaHarcrow                                       MRRG G IwRAUaYuzXHeDGSiTxTLJmGOfSFIScCPJfG                                                                                                            
19670206-203114CMPQFRbFMIOhFIvNDHHKUIHIwUDsyiGpkDUVMQO                        0000000058ACTVFPBB+ 1951062721182 Keswick West                                                                                                                                              T5C 1T2     New Orleans              VA                  United States of AmericaMclarty                                       KEGwsBnmMekfJPhPxjfIRjjOLrNPP QhTdskrJnUiNQtpOwTRGZGPAujGTJQnLzHKCfqqIwjEFwNayHEWQOWzAw tZYHTwHIxJwDVrncLZO c                                         
19670207-203944CMPVXpGhfFbmgISLSMZVQlpBtNxkRhiLKvoTFIEKvFgIOL                 0000000059ACTVFFB+  1945102024675 Seneca Road                                                                                                                                               V6L 1Q2     Montreal                 OR                  United States of AmericaWeers                                         rZSCyakdjLivcCDPaIRpdpgsv                                                                                                                             
19670208-093109CMPdGTSaPOJMHvtCCHelvrPOQXnY                                   0000000060ACTVADCCC-1867012817068 Imperial Drive                                                                                                                                            91350       Richmond                 LA                  United States of AmericaSontag                                        UxrKJuLXTnSKjRybbFTobJnMBpHmKvCGNhhJMDtOsKUs vnXTldNoAFZUddwyCcxVSQLfiSnbUegACkVHUlieKpAfifIRuGdVJJyRJAxB lyp POTZhPkAK                               
19670208-161403CMPPTNTHCLWsriUMNBFhDQDGtmBPPNiLOSaNy                          0000000061ACTVPPA-  187207244348 Wedgewood East                                                                                                                                             V6H 1Q7     Baton Rouge              WI                  United States of AmericaEllerby                                       AGXBFzesXPGkLKPupRlmPDeMswUKTBZAEVNHZGWePzPeLJrjRwqxVMhUOoHDIqMJwYYBXkXDlFxeRZFFZBQAulzTgprEZPydRSJzbYLnYXDKTzRhFOFoJAG                               
19670209-062819CMPkCGxWShTICEMykTPjwUmen                                      0000000062ACTVSPCCC+        9863 Boll Boulevard                                                                                                                                             82601       Saint John               Manitoba            United States of AmericaVandenburg                                    VLKtWMBrONDIlIwLJtsYSztBUgEKjqoJRITCeMXztUfWQiKRHKGOIwckDiCdQztaNOVKQSqYEcEUoSEKYFXlWvEgfmbhOcXIJkbDyZQKaS wvAAPKDRkLSnRNOYoFv                        
19670209-170922CMPxUJWMEEmEMdIWSDGXW                                          0000000063ACTVJSB+  193912083375 Sakowitz Lane                                                              Apt. 691                                                                        V6R 1W9     Springfield              New Brunswick       United States of AmericaHerold                                        trEZkEWyTOACdpHTEobAOjLpJUiEbVEKOFXFXrzGBAwQTFA VStxTSAEGmLBSssA MFQKAMHTAnqEoJPM                                                                     
19670210-185916CMPXDnNdfGcCiNIOwdZoWMTZgVYEOsHLSH                             0000000064ACTVTNAA- 192312227944 Nealy North                                                                                                                                                T5A 1O4     Las Cruces               WA                  United States of AmericaFigueroa                                      IEwuxzVVsHEKOBZvYLUXLBNQl uVAgdFEDDGwlHasMVtsHWVsREIBCvHDxdjygOvCZHeYMBGlipNhYOOyET xROrbelJFypFDD                                                    
19670211-170844CMPNiBcGbDvQsFXSbRxOUPzUvEKLCXRVlDFrhOUHduBWHC                 0000000065ACTVRSip  192404198428 Roberts Way                                                                                                                                                93338       Santa Clara              VT                  United States of AmericaHustead                                       gohyVVGtHRBuELMFeONuUo                                                                                                                                
19670211-190024CMPLoSyvUwXvGnKexKhSbbtArGnpUcArarLDzSDOEMMZBwKPwRuADFxSFJ     0000000066ACTVCXBBB 191209156941 Trail Lake South                                                                                                                                           90182       Elizabeth                GA                  United States of AmericaGallati                                        UbqcKJEPGlogIFFiIPmSZGccobSeLcdrDfgtNEZarFRsRUFRQPbiWMMYwflNQtopKNThnOAeFVGBaNNjoAoyMzArUyRpRXaTMLPhJmoKexHOuLU                                      
19670212-031853CMPYNouztDEEgVJnWzrV                                           0000000067ACTVPPCC  186907264371 Ashford Hollow Lane                                                                                                                                        38186       Rochester                Alberta             United States of AmericaTyl                                           loUWqFOsWSHzSuvDMNQr                                                                                                                                  
19670213-063447CMPhUAyAuPbTqDYKLMtyUtVl                                       0000000068ACTVIPAA- 1905090511528 Edwards Lane                                                                                                                                              95254       San Bernardino           WV                  United States of AmericaHarrow                                        BJPjEBiLafqfVUHdPLIIOUVoenJyBmVsTybsciXYwacTMKZCK OSaOhZ hrvKGCaKCHINLGDGyDUWpWnfbVXDjKmAEPu VlMJIJSPDBpdfgTMgZIJEcwInAxEbzQHIWjxxcyODkBDrapF         
19670214-001934CMPGKXARCFbFebKiAlLUJXKJgRjmqXdAQcnJFJAKTzRouxMxMVkXQMjtVZu    0000000069ACTVGSAA  19140501351 Ennis Way                                                                   Apt. 155                                                                        V6K 1U3     Saskatoon                AR                  United States of AmericaBosque                                        RNSPJ JNcVteXKNhOtxrIwmOpgLMtWPzIKjWiKqkoCqbTTSCBzHX                                                                                                  
19670214-162222CMPKCkPotwrqSQFGNsyRmfAqMDPgLswKnMFgi                          0000000070ACTVFFA   1858041321049 Chadbourne Avenue                                                                                                                                         X1G 1S1     Tulsa                    ID                                          Johnson                                       JBdKZwdpwPJTEcQmiMkAkoaDBPcdflXkyNfENJMpPNPyOAFEqvFzpojXFvspIfrEo                                                                                     
19670214-184554CMPzSzyZVwpMSypTaf                                             0000000071ACTVJSAA- 1933121320025 Routh Crescent                                                                                                                                            36649       Henderson                SD                  United States of AmericaBaudoin                                       wUOmTgLzKkUmumowvFuPESIlAgTIjDZQrNVUFbqwgFRLhkNgpWtMONUUQSgIYFvcSoAUJzYQeXzbYnhBmukLDRWFTPxXuKvPTMEZvBJnTGwFsbGuxnvSAlNQIOkVQSbJ Q                    
19670214-185453CMPYtvHEQBjudJlIIctWcFxmnzyLLXwZIjQbTYYSJjShQPPW               0000000072ACTVFLCC  1951012824701 Pembrook Crescent                                                                                                                                         32834       Orange                   WV                  United States of AmericaKirsch                                        kVNNUlVGTDMtNMbjgV SEFIXSXbrGSVaZmqIHONZcjHzKUoJLzgsCTUtjtmiVpUCJvGeETyXCSOOGrSlCjGLOg mJzCGBuHiaFyVsoGMcNbLBGywlmaMXPTjajmmR                         
19670214-234820CMPBELJVClFSUDWQNFrxaHxDDEMSOMNqTeWbFtIh                       0000000073ACTVDRD   1953111521985 Oakhurst Court                                                                                                                                            25712       Stamford                 WY                  United States of AmericaShugart                                       AwdDE hROOmGqaxYOOCGScTThDVGkLQCRy                                                                                                                    
19670215-180651CMPjlkBZXPcVEbEkvquHcRWHHHVGNQxJWnBWpCCCKENWGMjHFABR           0000000074ACTVCVBB+ 1949071318008 Bigwell Lane                                                              Apt. 192                                                                        78245       Rockford                 WA                  United States of AmericaNelson                                        mRzMlM BYhKNvA DLWvPHVhGdVDRUTxNQjIkbTexWMJVCTNOWiDxrytVMDtsFQZEKVrVdzGyABBIYSvRIkVgaDwORUnObQEishvZZyKBiKLfkYUOECwByb BQLrCWGlQXeBxqAbiD             
19670216-043443CMPUfSHWSCITBCAOZQunWBPoRwGIRuCUoPSdEQARTADOJmAyACdfM          0000000075ACTVOSB-  1851040623890 Bay Street                                                                                                                                                99611       Miami                    UT                  Canada                  Lekas                                         TEUEZXJoHNH                                                                                                                                           
19670216-102557CMPBUJliDksNtDYNWtXQNvxDqRcgLvBFezlasHGMAKJNGW                 0000000076ACTVIMCCC-186704297788 Holmes East                                                                                                                                                93740       Irving                   KY                  United States of AmericaGreenwood                                     wPTmMfcYDI mTECEJDhYspXQhJavEGORzpQ JYFRrLQKEzJxFFusEEISgaKeEzaItwdZUATDeQZZTCBWHqCEgDNbe KIDUOJiucTcSqWILUTSTnWFlAG                                  
19670216-175837CMPaHUGIHZFBLPMqxMvKLQZvDGAkHnUMtHIYMGULLkMrvMvSyCmX           0000000077ACTVMDA-  186208157627 Douglas Road                                                                                                                                               75215       Santa Fe                 AL                  United States of AmericaChristian                                     adWEJw PeASeAAA                                                                                                                                       
19670216-181600CMPkHtGiuFfPHTrsLQCQMHgHEIaeKArhp                              0000000078ACTVIAAAA 1897070323070 Oxford Avenue                                                                                                                                             45251       Phoenix                  AL                  United States of AmericaStarwalt                                      IOavnvPUwVOfAyZFHylGHHFHwqNaAzeEGLGBE                                                                                                                 
19670217-110614CMPieIyBwMxVgOHXKQlnyDjuAKXXV                                  0000000079ACTVARC   190407087184 Charleville Lane                                                                                                                                           78210       Las Vegas                Manitoba            United States of AmericaCazares                                       qqHpVeMkVLmMtLfLvniRQFqnQchzavhlPXZouggRmkCDuoWTwSVIPvagOJFelAbmYKJeAfLtLtsWHlMeqIfdiaAqxwzMqhZoFEJIUtZtCTICgRMuzlTKOBkssosiB                         
19670218-111145CMPjaaLOswAWNHAAHrSJdoSSzDViOJjUjQtYhYJQkHMYPSJxGEVzPMFi       0000000080ACTVRTAA- 1855090520602 Reeves Drive                                                                                                                                              E7O 1I4     Honolulu                 Alberta             United States of AmericaDurk                                          SElOaViLbLAUBQudNruSFjZlkDzEiMbnPmgMhJJEVzqCnrOJppDPfKTEcj PpukLkoTDRVPQpcuCqRJmSJIkzQogQBgeiBGExLtwiMdnNCoKdqJYbXscGUBJGLrPGeCq                      
19670219-074613CMPKwjfmirRqfjJKRClFNxFXRUpUKSpCNxNadkYKRajlaHBFBFgLPbynOng    0000000081ACTVFPAA  1865090423209 Pearson Drive                                                                                                                                             V6H 1R7     Iqaluit                  NJ                  United States of AmericaGosz                                          eIZPMdrENAguIjTSePbkCAlctUxKizZriPasoyVbOulZVUxvkSUUiKLsArfTJijKMvq jPINZVECiAlTZykAySKdJLYXJUUwpoVMMzNdDEXuIweCoQKKuEUZRKJAKRQINvVnWxpVQuqRPb        
19670220-063103CMPxyrTpxryTSQNQSeNzhwRP                                       0000000082ACTVMPC   194402086488 Avalon North                                                                                                                                               E7N 1O7     St. Johns                CO                  United States of AmericaNowick                                        VxmlFDV KkkZAlKBpyayMHxooLFwxhPVhAMxEiB                                                                                                               
19670220-101630CMPOzjqKuNwhkyhggnIcbOUTzPkHmlLHjqBIaSPMTDPDgJNJNaJSWg         0000000083ACTVIVB   1855120611835 Allen Drive                                                                                                                                               10043       Ontario                  AK                  Canada                  Hagens                                        ysyXTJQLpnpDnODBZpNeQRfAUVYCJmLGKOSqRHDjeFob                                                                                                          
19670220-131534CMPddSCazOpdJvGoBAzkC                                          0000000084ACTVRMBBB 188312313262 Katherine North                                                                                                                                            45208       Lansing                  Prince Edward IslandUnited States of AmericaSause                                         QDTYWXhwMQRITSytaVRCVNyBoQAvTnUdYIj                                                                                                                   
19670221-050019CMPbGFUwQXggAZypFjRCphMxBp                                     0000000085ACTVTICCC+1962071711733 Electra Street                                                                                                                                            60782       Hilo                     NM                  United States of AmericaGosz                                          fqQhOquoBrnJUeOHuVrfusHdRGIdCJDfw zWwFPyTmyFtJEVlTxsqfqlvmMdgLlowpWIqYTQMGudobAE OWVQCPWIsFAHQr  brNqIYNVUrRpSpmwvLuyZIUKyBDJIXWWmuhZnBUFgOnJaD       
19670221-143330CMPgZUwQaFFTCVVSnegbXTDEgWjCjDNFMHmaEQQDtfQdxtonNVUp           0000000086ACTVFLCCC 194711298092 Gibbes Court                                                                                                                                               64053       Charlotte                AZ                  Canada                  Arrasmith                                     WGcCjpyDEzPNVEbtiavoUViWNoROXQggvDCl RKKLBZYmCBb sOkOsqOQUUGDolEssoJmYJ PkIDy YmoJNGjTDEaMhhPneGyNdkuVJFKJXXPMwxSERysGjDQoQzsHzjKGWCzZPP              
19670221-173150CMPDIOKfSfWssQzOdgyxCetm                                       0000000087ACTVWTAA+ 1962121016633 Raymond Road                                                                                                                                              96801       Hamilton                 NY                  United States of AmericaFurnas                                        iSAtVBtrVJEGiTESLsiDfDlcSj FbK VIvVuDHG ZsqmTs                                                                                                        
19670222-092156CMPGCuinPDvwNejloIRTkgEypWMqgYu                                0000000088ACTVDDCCC 191306251971 Prairie Drive                                                                                                                                              V6P 1W6     Orange                   GA                                          Vanalstine                                    HwDrsnKViuaMCgSGSTpzhGfUPQZIHsIhWHsNLcdcM                                                                                                             
19670223-083939CMPQwnIbVnuGKkXinwkKNLkqFNNlyDxVORxOQbZXbKhdqPCFoPBEWbUnxOfI   0000000089ACTVCOAAA 1950062410522 Josey Avenue                                                                                                                                              92027       Charleston               MN                  United States of AmericaWitherspoon                                   mNRFENDUFMBQhgTMhTpRyFCKTpELTLdboLqVRsThOZFeUexyIsyjpFWwYgewEGKRESTblRPNsdKSfpwVsWoCYqvPJEQqELOikVMPMwMheTsiGeFuyoWHFTYdyVjKKTzRPFu                   
19670224-054305CMPODMjETCWLrWNwXFAtDsadcmipXdXWIonWPrnavfkvWXCCIXNIInRCQUZ    0000000090ACTVAPVc  1887112521586 Braeswood Street                                                                                                                                          Y1A 1G4     Norfolk                  ME                  Canada                  Koskie                                        yGCGqPVsvaNJAHLJePOzjoQVBanvsOHVRFtPQCabOqCZxePuIFYklXOdMrHgHsSFTbvsvWHKtaKRCFxELCFLthSzO DBaIVBJx                                                    
19670224-112825CMPEfJsxyQXPtapRNKCSPqQITlQBpykYMLBIWPDLpTrHbGMNqVIizY         0000000091ACTVCRD   1955083013123 Runyan Way                                                                                                                                                87106       Waco                     WA                  United States of AmericaArrasmith                                     IRFOqTPErqVxIKSV StWVu RNkTVXTmYRFbhDBhOsMwR                                                                                                          
19670225-071101CMPFVGmQdOORBhcLfIPiADRHiPNvGlOIkkKoLhHGhaUNUSHWVhKqDfXAFFT    0000000092ACTVRSBB          387 Roosevelt Street                                                            Apt. 518                                                                        73124       West Covina              WV                  United States of AmericaKalafut                                       PDsUhCYLIThvqDLIcTkpEZUCEZABvGEbcwhtlqoxUPTq x sHMdkpAoZGN q                                                                                          
19670225-071142CMPjLIQIdLrlUATnOXEVHYBHtEqSmUbnKKY                            0000000093ACTVMPBB+ 1940102510790 Bonita Crescent                                                                                                                                           V6U 1R4     Hampton                  NM                  United States of AmericaLatina                                        AtkMEHgmofHujqvENAtMiozfHSEVIlMmYoVERmpzOHvwCWxU IDcWEEjFfXyqLuDYHgpNuDVmnZUXkKSvCzUqPQGIMCQGENJyHOLNCAM pXvFZ SInXPxYsiKKzGXRIgHTZkRRoNUUnxsWBstxnKv 
19670225-165013CMPXtbozDFYEJJzHPPbBRzE                                        0000000094ACTVHICCC 194103035003 Travis Lower                                                                                                                                               19246       Sudbury                  ME                                          Hartis                                        yEocAFUkSEChN MwoOnPWSSRLbMCabNgVucIJBVfRF FrTHMubZUONPRzIVhDrJNHEoisqofTxeKAGYOzKPESADNnhzrYEYKVFNLIykCVFPLUuxO                                      
19670226-154618CMPFMIbTVLSSRMQCUKGxFaGyEAlUugrGxVwsPySJkUxGeISWqJDdocXoSJjKD  0000000095ACTVDRA+  189204106931 Seneca Park                                                                Apt. 502                                                                        V6N 1P6     Victoria                 KS                                          Olesen                                        bcLTDqxAFKEUPyFSNPQWSBpNr TXRinGPMEDMDxiLZDjT                                                                                                         
19670227-002948CMPWIFHmdYSMPHKWkoqPrQTYs                                      0000000096ACTVRECCC-187410095317 Drew East                                                                                                                                                  V6F 1P3     Costa Mesa               WA                  United States of AmericaHerold                                        SrxPOnOQ sHQK                                                                                                                                         
19670227-161527CMPuiRYXfIoONrIzCHoJMWlq                                       0000000097ACTVCAAA          739 Dunbar Way                                                                                                                                                  10051       Alexandria               MN                  Canada                  Spoto                                         auFNyfRjjaFzMzHXmofxGPnYsOdGCWTWwMLzvALFFmVNgiTzSTtuMBjjIMCIKWfBmVEQAzICeVqIddUDBApRpQeYcUbalxHmXs                                                    
19670228-170223CMPtbCCeSlfbPHlFTGaIsJfIRszAXkoLScDSGRpHLYgaoMhTWySUrRJATSYOL  0000000098ACTVGSD   196107186477 Hylan Way                                                                                                                                                  94258       Evansville               WA                  Canada                  Study                                         DfjEaCSWCJSVoYUGmnvrygqAFGESqNzliUYxXzoNAGylKPkZhHUvfUhHjb                                                                                            
19670301-110136CMPNAYgyJWLYJBEBsHyewWRGxACUqRMXHbFXaWCEBYtC                   0000000099ACTVOEB   195706049941 Royalton Drive                                                                                                                                             37937       Cincinnati               VT                  United States of AmericaFauske                                        TzCBGzvszgyQJISGube                                                                                                                                   
19670301-222052CMPGBwfXYROsIFGgJnevYXtIlKWqpWBaxUOBLQuBOjIgbnnJiATTAwMElnc    0000000100ACTVBDCCC-1902072714333 Dolores Court                                                                                                                                             94615       Shreveport               WY                  United States of AmericaCongleton                                     HPIeihlhnQIUDsFnQBHdH EafmjI                                                                                                                          
19670302-080522CMPPnTWflZzXKMFUzFAa                                           0000000101ACTVWUBBB 193309182867 Buckline West                                                                                                                                              T6D 1J7     Sydney                   NJ                  Canada                  Coppock                                       DzBCxoIstKONkFDohcH                                                                                                                                   
19670302-120908CMPOtkqLHOfItLsbQFRgKvxJRJbHMHKCTnCiLvsekvrJL                  0000000102ACTVIVB+  18980801497 Stonehill Lane                                                                                                                                              H7H 1V2     Winston-Salem            Manitoba            Canada                  Ally                                          LABPuZBBtEpMXcpylZEnsGeqfLcC I                                                                                                                        
19670303-141410CMPocLGFxFIvpmKvcDUqwdLsRIzqVqOQSmQKDGKkgHNbNoSCBZlC           0000000103ACTVTHBB-         7834 Turtle Creek Upper                                                         Apt. 678                                                                        72216       Casper                   DE                  United States of AmericaPowless                                       ouJyJJKOzgFzdUwpDxPf uJeyjKOFXtmxPu mMZRsfyLYgFxGKbZbIeVRxUNfpUBLBDb c                                                                                
19670304-124416CMPbBrSPifIaInSAkKzVpJPPTGoCxaskRtmBSgXElBoGwDiLnvQRLHRTFps    0000000104ACTVREB+  190204284923 North Lower                                                                                                                                                E7O 1N7     El Paso                  TN                  United States of AmericaRegine                                        tZOoJZSHGiWFgRYQjKAlsMKpuJYhYxQGLiEq HDcOrGE EjlQSoTIiRLCJMZVfTdwGltFIAUzGAFfivJzjzxArfLO                                                             
19670305-131205CMPGNPmEJpuhWbXsVlnIW                                          0000000105ACTVFLAAA 187108306094 Alonzo Lane                                                                                                                                                91128       Great Falls              OR                  United States of AmericaRibas                                         EskGpIHeTspAFnALPPKjziIqDTJGQXTHpeFCkibAPDaCDLzQugANKoKIDo                                                                                            
19670306-153916CMPvdHVNrdOsIrMwKVkVqSWHZdImDBjZqUdrAJUzFOPrUum                0000000106ACTVJSA+  1898081624139 Peachtree Way                                                                                                                                             V6O 1T8     Evansville               MD                  United States of AmericaHarcrow                                       PxohsbrnaFJfERDuWTHcmUir TuKAFEqWrHUvrODDqiEfzbPxXGMMOKyx KLcuKtLLJpMRSk                                                                              
19670306-183725CMPzPDnCPNaQXkiPtzDLtcrENJONEyAAogVQCkOMhbLThGHBTRtMPVLtKXz    0000000107ACTVTNCCC-196112074068 Beauregard Drive                                                                                                                                           V6U 1W3     Simi Valley              KY                  United States of AmericaLinet                                         gTTWyTpSZJBdGVBeUkuiFEqFGUToWNbZkEWNfcRay KlhcDjzGgmcuSOUMusBFJUIJlWQcXGpNSevkFs                                                                      
19670307-152842CMPjsZEGZnyIEvAQcFFRlbgQmiCuyGHaHDzDwGgmCfNAmNhk               0000000108ACTVGSBBB 1869041510008 Brownway South                                                                                                                                            V6W 1T9     Santa Rosa               MD                  Canada                  Dreier                                        WfVazNODMUuITPciUwxObRzfMhoguOjcoCraiYletaFf QBIMvMRLCDkFILLnoTxhcEQxwONYFFoqVZzsqxMvlmtvUbADa                                                        
19670307-181123CMPIoKUtGXZioegJCNViVxMypETfGzoFpFUrDxdifKVAIZXNIKfuTkc        0000000109ACTVTRA-  193008232461 Vista Park                                                                                                                                                 90268       Spokane                  SC                  United States of AmericaBrumby                                        epiIQcQEYLDPUmgWgM BLGuBJvjeVxBY SqFDkDoDRrBGWKsCYopPePbOXEDOOKxybMBeMcFAGwFbsMLUTqgKBImKQHoDCzXOAfCOQJoXNBT QSlrdXpBCTtlHEGlXStTVS                   
19670308-203459CMPGCjVjJdHNLUhgQD                                             0000000110ACTVFFCC  1891102619394 Canoas West                                                                                                                                               79941       Fort Lauderdale          VT                  United States of AmericaHoener                                        GIslRQnBqGpWcUILTaNDRNpvhPOIywtFAAgISJTRAGBIoEWEsTQumxBQAdLWSofBVKSrVzUKqFThUnSjbkDhTdKRpOvtVJHXrfBTEupwKMIrDUHs IPdAaJwlBdhDCIg                      
19670309-162738CMPoLLXsGlBulNylApqZLPIkB                                      0000000111ACTVAPCC  1893093016090 Darlington Lower                                                                                                                                          57117       Salt Lake City           LA                  Canada                  Jurgenson                                     bjwGQOWtCOcNqTvLHiTKIRGVZTScsFyTF                                                                                                                     
19670310-112925CMPNrrqCXruCLCAVkwSEhvrBGgjRydDVQjOxy                          0000000112ACTVARqoDl186509306737 Windwood West                                                                                                                                              76009       Fullerton                LA                  United States of AmericaCardwell                                      JEMaWCKbVoKPIaKFUrRveElFxKo                                                                                                                           
19670311-103739CMPyjlhQKIALCdxqRI                                             0000000113ACTVSCAA+ 186805316072 Wesleyan Lower                                                             Apt. 630                                                                        V6I 1V2     Toronto                  DE                  United States of AmericaHagens                                        PLENRCvYvSJsSwZooAMbdBbOTybOEOShxoPgxGLhBYidJUBvcKAoSHmVVGVmtzwcNewdH sCDMaWrvrWPJk                                                                   
19670311-130504CMPcaTSWZAZArGJdoyLThaWQbFTpAgqCWU                             0000000114ACTVILKeTU1860040917576 Alpine West                                                                                                                                               14224       Coral Springs            TX                  United States of AmericaMatsunaga                                     HZYBUDHL jJRJDsSMsvAypAC ZDZA BTRD TCsfNLlIFL GwZLoXvaNJvxDxEVCZDUAWMiXvKQ tRYKiRS JDaSrKUDsLYMUsjMQOHchQWDv                                          
19670312-044459CMPpDToWKnnzZZqdQIocIAFPFOfRfwAkprXFizOUUlpONRGUKsXiJIgzGEugKl 0000000115ACTVSTCC  187101196138 Cooper Crescent                                                                                                                                            83726       Iqaluit                  AZ                  United States of AmericaMcquinn                                       LNsDaaUoisvpxfYSgUEDWlsoynFbOJLkBwATzOcKxAYTObWEVULHcIaYQwpTFSJOq                                                                                     
19670313-064615CMPmJmRJtJARsVsPrXR                                            0000000116ACTVOIB+  1866031824529 Polaris Court                                                                                                                                             85061       Billings                 AR                  United States of AmericaThiesfeld                                     lRMZWVHplKAKEkEKZrsPeHkgUuTNGAZyuefhvfCLBkSCGhgKITSBV                                                                                                 
19670313-120029CMPqTWHBOgEuGnUTcpDWXPStEWt                                    0000000117ACTVMEB   1957112623058 Colonial Crescent                                                                                                                                         70149       Vallejo                  TN                  Canada                  Kovacich                                      RSKaEHlaNCFGEkWWWbUMFhnbLTIzIDMVFIdgTwniBGUhKCjlaMK                                                                                                   
19670313-135050CMPMvFWFxETzIJhdDIyDWMLuczKqULEfmrbdOONwcNWwVTIQWWIHBCDXCXCSEX 0000000118ACTVSPBBB-1880031212807 McCardell Upper                                                                                                                                           V6K 1W2     Brownsville              RI                  United States of AmericaHavers                                        fKdGkMajAPYafjTKCtESFgOrFCrWVbotkz EkHUNONfDzJCZDbdPYqMkWGuEZRMlIFOrhOeN                                                                              
19670313-230727CMPRAtXIperFfSBzTNkUHKANNBGDCfGgILLuOMHtQhR                    0000000119ACTVWTCCC-187601167837 Howell Court                                                                                                                                               E4A 1R7     Naperville               Prince Edward IslandUnited States of AmericaKerth                                         ilztYgVTGBFtUwvlcTdhqHtRYIqYZliPUHWbBPqGaGbBPlMmKCcMErGGkWwoNcbBMWFDVdETjCHLOXjKsBJViNsNARKRBKzLkOpqslBENGkHDqDJL                                     
19670314-200222CMPDRNHqMCixoAPPUXBkC                                          0000000120ACTVPSB   1903060324123 Lamport Lower                                                                                                                                             H2B 1U3     Charleston               Manitoba            United States of AmericaLaurita                                       HhfHdMQRBItYAvZIpq IRAapwazjvysttFVSZsktNKyvQJCksOuuSuriUPPELULZdFRUPIcuLVq TsZFVhiymOGWnIltcaILumMFUQLRfjZDxMrnFHFLPO scaKEeBmbXAJEJ                 
19670315-090621CMPPGyStCWXuTMNSmMcKBrfVUQWskEFHeKXCHmNquHGGLzFUUDwJPEAiv      0000000121ACTVDRB   1886052324697 Florence West                                                                                                                                             X7J 1R7     Memphis                  NY                  United States of AmericaSilva                                         IBFVfUSmnLQTToNeuNPPeejBaKmeNqEcthuZlyASrZAcRnrtbpOqoyFTMsrUQCQwqKTUoE lwQuc                                                                          
19670316-012557CMPhVAaKcPotSMtGHVnWXP                                         0000000122ACTVCUAA+ 1960111412510 Century South                                                                                                                                             32302       Norfolk                  Manitoba            Canada                  Downen                                        xSkkgCJWziPCFocrFTvbfspNGWVQQ twSoyZIxGtXOKPXplbJU INoSaO umxOKgILeRNSFAqVsqVBohDVCkeDsDVEReAQYyMvlzNwFbkmjIiAVhK                                     
19670317-004029CMPQjsCxwxYPbSPeyOvSTBscDWJvWadN                               0000000123ACTVDDAA+ 1892030311941 Maywind Crescent                                                                                                                                          91138       Laredo                   MI                  United States of AmericaLantaff                                       FGTeImeElBJLkdSsPXesGVBEMGSVRF PaVHMaKLNUxMZKAPR                                                                                                      
19670317-023140CMPDtsNvBcUYhPGHuGmBaQQIRiXiKlYxUFPHFJtrQploRYBiQoXN           0000000124ACTVILB   1910100411835 Allen Drive                                                                                                                                               T5D 1R5     New York                 UT                  United States of AmericaObi                                           phKhXYGgFYghDxY                                                                                                                                       
19670318-010141CMPpwYDWdejKmsIdjXONAJBDcYuwSUgSGSdnjgguxYVlHvEBzvkzoOzQ       0000000125ACTVHMA-  188607289212 Mesa Drive                                                                                                                                                 80122       Fort Lauderdale          ND                  United States of AmericaValine                                        XltSKkpNNVJepUNIQY Rq                                                                                                                                 
19670318-223817CMPoGTJWTHXMhrLYCSFuDKKHZ                                      0000000126ACTVOWrN          16328 Rockdale Avenue                                                           Apt. 229                                                                        22320       Sherbrooke               Nova Scotia         United States of AmericaGallicchio                                    RAvcJyNTAHSGuLyDxzKODCRbOJnPdRLJVwrlkAczjIDVhMEMQRSmEANETMjkgVMPTVRhYGEIPDzveCoMCd BeETVxWCSorYMvlCIIfrEOxTBPKAUoZbihipeakpgdnVoVBfuamcLIDORGxbUw     
19670319-031917CMPoUEGILgWillOuVWfPhwgMzCTHSIHvObGfPCxxrBYeSUoLXO             0000000127ACTVTRA+  1872100421182 Keswick West                                                                                                                                              V6L 1S9     El Paso                  Prince Edward IslandUnited States of AmericaScordo                                        NPciwyGFjClhBTFCNEzANNelTGzfSvZMAgnHCXZMhjZmskUHrqcxZM fSL                                                                                            
19670319-074023CMPtMgSZEBCIXIddwcJTrzDKJaVwaVrpPGg                            0000000128ACTVOWCC  1911081824438 Cedar Springs Avenue                                                                                                                                      M6U 1G8     Wichita                  ID                                          Mahdi                                         dVmHymnWbNvuObhvcvLdSjmQlNSHU tKCEZyMSrIIRhzRksLaYdIrJI Uq                                                                                            
19670319-202305CMPXCSbLIHwrFuenuhOSByKxXLBgIFHMySpTKhwCpBNFKAUeCzkBgyOOJfH    0000000129ACTVRTB   1932111914633 Curry Rue                                                                                                                                                 32250       Madison                  UT                  Canada                  Monier                                        aMDJHOONGkKKEjtSVoYjUfhEIqKDHTNvGAMKtuIXQJNVFbnkIQlqiRC CxLuFmomajjrHgOcISRVpFzCaODuGAHyngSJCvcVRuS pbEAGfGLILevslJxrZOT                              
19670320-214603CMPgxRDKFSvPlmeIOeEmKDFgLkPgZLTtoGjaHHWZjKtlLUyZjfjUTUOEdaZC   0000000130ACTVSTD   193610249038 Westheimer South                                                                                                                                           33613       West Covina              FL                  United States of AmericaSchedler                                      wdteQIpLgJZxNwSjAdBtQEowozSVEhhcjCZ                                                                                                                   
19670321-063912CMPITIBXSnyIwDHJQhzM                                           0000000131ACTVFWB+  1879020122162 Throckmorton East                                                                                                                                         M2R 1D7     Atlanta                  NC                  United States of AmericaMerrell                                       rWkx HAjFbzomrwISzOOTqoYkLDUTZ vS                                                                                                                     
19670321-083349CMPRbQDcIOWJLczKeATXKOc                                        0000000132ACTVMEC   186609041053 South West                                                                                                                                                 M8C 1W5     Sandy                    DC                  United States of AmericaRumler                                        DqvsIvCOFAIzNdYxrIsKwpDjZKgkUtlSnoGlboHHZDtSpwUBe                                                                                                     
19670321-085210CMPPLFvBRDnWxmtwNhdkGpUFvbStpeKYhbtuRxTSKanfZHDnUrLoR          0000000133ACTVCFTC  194203238157 Puckett Court                                                                                                                                              96818       Worcester                RI                  United States of AmericaObi                                           ESApxwHvrVIIHWotP                                                                                                                                     
19670322-035000CMPlRJmPfbJUpmORFMRnbyTADExGTDJQlwShQPpHDysIlizHSnZz           0000000134ACTVAEBB  1909011323445 Gates Way                                                                                                                                                 87109       Tucson                   NY                  United States of AmericaScheppe                                       XJxneLLccqLqRzTVjUNVOAcELUCowLgoihRAHuhIbcaSAjcMlpoSjQWelMdjxBKbSUjWXcvakNUUdlCpSxVOY GYHxOiuWTJcfvYTKDJOpKxcoPgUNUIJjWkJ mRowdfIvO                   
19670322-121740CMPTVBaQTDJrwGqJVGCBssskBnDsDMLUWwziNkIsfdVbcTmSYVg            0000000135ACTVAMcICE194305082116 Whistler Upper                                                                                                                                             V6B 1W3     Ann Arbor                TX                  United States of AmericaHoener                                        sMFupUrKClLmdiUfEqofAVaCfjtWdyXxWNSXVTPE                                                                                                              
19670323-062923CMPBVKkCHLPDGgsHNcHspWSOlHUndemQfJeCoVmAJKGcMVMmkIWVRMtZUCGymG 0000000136ACTVSCMYW 186601145383 Payne Crescent                                                                                                                                             22332       Raleigh                  MI                  United States of AmericaBayhonan                                      HJXKjaYJOYthqEZVMNztfTVPLAbAAMzSerHwHdJivBlXmJosMjFDzBMQrZBTW oFUeCuhTeQDYHNMMnyCryKOlEtFCzBFsfCITgLXPK                                               
19670323-233909CMPSlPaNtGSguUSBkeCnLDlqiFOAPftmaQ                             0000000137ACTVMMA   1916071520653 Adams North                                                                                                                                               H2A 1X1     Madison                  UT                  United States of AmericaGizinski                                      bnVETfPWLUCFVpfpcsKIZhPUHNeBElJHuPliDdTEldaNuLrndTOvrD AzlnLjzOkaHfGBHvynzbgRKL bsyOajgRNNTlDcMhfNIkXoNWtozjkucxdotDZYlasq                            
19670324-214645CMPOnJrrBFjnUTCGXLHESAmVOWIRxjOtVtdOCQstAAYLQLkb               0000000138ACTVMDB   18520820210 Charthouse South                                                                                                                                            43654       Biloxi                   UT                  United States of AmericaWillenborg                                    JJjSIbIByZdUvPBgCafFknUiLSmBBVnUZEEGGMFaUhNwCHonndkZPGMOOADfSCCncrEUoEhqVTgcLECquGCOZIQWkWWoRdRDNHFgKMPmIGZkoISflfNbQmGOeKOuRpW                       
19670325-120700CMPIFMKAPsnyffkALrEorEUixamr                                   0000000139ACTVMCA+  1934090117837 Sweeney North                                                                                                                                             E4A 1S8     Dawson City              NC                  United States of AmericaIkuta                                         egf FJu PoyCInHik                                                                                                                                     
19670326-051950CMPDGRnGSpVECCpqPNWQFrXCqxvAKEHbMGsTakcM                       0000000140ACTVCVAAA 191111041817 Danvers East                                                                                                                                               93914       Chula Vista              British Columbia    Canada                  Seroka                                        AMuKdPnBOHwCxfeHLCqu                                                                                                                                  
19670326-233823CMPZkoMRNxyXxPFWBJUQZlfnUdXWOFWJ                               0000000141ACTVOECCC-1955090520954 Belt Line Rue                                                                                                                                             V6G 1S1     Victoria                 ME                  United States of AmericaMinerd                                        MwlFBfgBKToPdQGPxKqIfIALYZSWuQINTmRatXNYkqGZqKVVDSpSZFEGexMpTgwTrGOHLGZmAvFeJEypVnoOTDKXKCwqjSXbyr SvRKBgBRntr                                        
19670327-102456CMPPGqAyQmapxLimPeECtNpWH                                      0000000142ACTVMSB   190112309906 Airport North                                                                                                                                              79920       El Paso                  New Brunswick       Canada                  Ho                                            lEGkqyex FBYkVRHMdlMqRHnGbqYqe SRKfCICTNwLhgLDvojctcRcCBSfqKacI pIwbOXLU KXUQTvlAGTOCQaeMA T XSETNrhIOOJnDXPNSwuLapiHRLpCyWMXDAxRpIFKXbTgPakZPWSnS    
19670327-195320CMPPFoTZYECEjQHItKmWAtfTOMK                                    0000000143ACTVREB   1962072818267 State Drive                                                                                                                                               X1H 1S2     Riverside                Nova Scotia         United States of AmericaConsolver                                     ksWEzIxkJffPTmnYvvENbN YRaCwMZfaiZGzXmJpoWKYjnPqEZWlZIRqYaIsPfKGAwqdqRvQdZxjwJtgJuSLZrLKDRXDKEaJGkBEDFFuhIBtLBuswooBjJtLgIVMR                         
19670328-125007CMPWyCTXCnMptryHhCwGFfCFMwhjCXqccIKE                           0000000144ACTVEICCC 194704073909 Marcus Road                                                                                                                                                78296       Winston-Salem            WV                  United States of AmericaSeroka                                        gwBiJvYZJWKLXMENXBPrzwuWaPFMZMyzjbHNgKVLJQUnFi                                                                                                        
19670328-233349CMPRxKMPKUYDaeLqGeOBTUQL                                       0000000145ACTVIACCC+188409085054 Emerson East                                                               Apt. 653                                                                        M5E 1V9     St. Louis                MN                  United States of AmericaManganaro                                     MNaFBNEjOmwYcRwnRKxIRHyJehYOdrsOgNYhGTSUKYPGQLrQTzSbwTqBKwQSQnDWQwE                                                                                   
19670329-050150CMPjUcPVhEyIOUOiGIFCWXeodPfeZnFxPLWfseMUNWsZXXpfHPOtVSQAmN     0000000146ACTVBSOX  1888091318033 Western Way                                                                                                                                               91202       Garden Grove             CT                  United States of AmericaMendizabal                                    zTKLQwDOSMKpTURGyYS ftIQFgeyoJhDAQnkkBatWASNQLVPgILcrWzllMXORjVOOVU JReFsSFVqUYtmTGJWirVwAQyFfqWKLSpxWcmyshwyNckslwxRD eVTVp tHpSivqDgyNaRPiumIUxmBe  
19670330-011110CMPGcEHIyRTbWiNnUPa                                            0000000147ACTVCCAA  1951051022151 Bluff Road                                                                                                                                                72267       Phoenix                  IN                                          Crall                                         BnWPKjoAIBzaMUHcJKgMSUw FEOrueHQHsEADoKcPpaCPjPkoVIPpfACZAjPhRgANVjtNAJFHnSEJMxCRcvvzdc qUQbHCz eTVwVX                                                
19670330-074214CMPDLOqrAMsniZCUBVpOTjUgaEEZbqdWYSFFoVQs                       0000000148ACTVARD   187510185899 Bonneville South                                                                                                                                           T5A 1V1     Eugene                   ID                  Canada                  Hetsler                                       OfQxaecBYvnveWYkbCKxDRBFLBkfxoiTTAGXofQgKk mMINOkSqQjXCVZ kKGxnQLGcNDmMbrYJMzfRSfQexFRGhGNOwduprZZwRQ                                                 
19670331-111226CMPaTBtUPONgCjynxZSXAXRuyBVRBoIDKCCktKROOHDLIaEPTLYdlVDojMosM  0000000149ACTVFWBBB 193409295397 Gessner Drive                                                                                                                                              98193       Portland                 MN                  United States of AmericaStoetzel                                      BuBTUySIpcUmH NMvnKdMwKGy JrGxXlWTYLMFmgSWvOOjZlwKZnlCNzuYlQqnNfbIMLlaaJPOjKILD                                                                       
19670331-154142CMPMVCKckBWCQkXbqXuPPxiqbioWtLPmVFWPDdIQsbx                    0000000150ACTVEUBBB-1936020412035 Meadow Haven Lane                                                                                                                                         43628       Whitehorse               Nova Scotia         United States of AmericaVititoe                                       CSnIEzsCjfEHwDAPNJntHTgcMsRadeUUPnkKYCjLnuNhIgSUeBspDUUpoQQKFYDBLGPZOLujypAVORdIIQkRtTfqUgOAsuCVLKdmKtMxDbZYr TSHVIHTTLVmrgPbANmaVZNwZEzBtzLlvNPC     
19670331-235958CMPwtUTIAshgTRlJiCRkCrsvGzSDTTpQWXTsIEaW                       0000000151ACTVBACCC-1856011323423 Sakowitz Street                                                                                                                                           45418       Concord                  Quebec              United States of AmericaTumulty                                       agqVDQGcZMBRxUmOVUOHWPcqMAHNuBWYsOabcMWTDevoDgvGxJLaQEPfAAtLwInEgpfhlRtWV                                                                             
